:020000040800F2
:10000000882C002045010008812D00085F2700088A
:100010007D2D00082B02000833630008000000005B
:10002000000000000000000000000000EB3B0008A2
:100030002F020008000000001B310008ED3B000803
:100040005F0100085F0100085F0100085F01000810
:100050005F0100085F0100085F0100085F01000800
:100060005F0100085F0100085F0100085F010008F0
:100070005F0100085F0100085F0100085F010008E0
:100080005F0100085F0100085F0100085F010008D0
:10009000616100085F0100085F0100085F0100085E
:1000A0005F0100085F0100085F0100085F010008B0
:1000B000D93C00085F0100085F0100085F010008EB
:1000C0005F0100085F0100085F0100085F01000890
:1000D0005F010008694100085F0100085F01000836
:1000E0005F0100085F0100085F0100085F01000870
:1000F0005F0100085F0100085F0100085F01000860
:100100005F0100085F0100085F0100085F0100084F
:100110005F0100085F0100085F0100085F0100083F
:100120005F0100085F0100085F0100085F0100082F
:10013000DFF80CD000F03CF800480047A586000826
:10014000882C00200648804706480047FEE7FEE767
:10015000FEE7FEE7FEE7FEE7FEE7FEE7FEE7FEE777
:10016000813C00083101000840EA01039B0703D0ED
:1001700009E008C9121F08C0042AFAD203E011F8E6
:10018000013B00F8013B521EF9D27047D2B201E0A8
:1001900000F8012B491EFBD270470022F6E710B58C
:1001A00013460A4604461946FFF7F0FF204610BDE5
:1001B000064C074D06E0E06840F0010394E80700B4
:1001C00098471034AC42F6D3FFF7B6FF988F00087B
:1001D000B88F000870B58C1810F8015B15F0070394
:1001E00001D110F8013B2A1106D110F8012B03E0D0
:1001F00010F8016B01F8016B5B1EF9D12B0705D4D8
:100200000023521E0DD401F8013BFAE710F8013B20
:10021000CB1A921C03E013F8015B01F8015B521E3C
:10022000F9D5A142D8D3002070BD00BFFEE77047CA
:10023000704730B504460D4600222946204600F09E
:1002400001F830BDF0B50346012500241148807B3C
:1002500002281CDC00200F4EB67B0E4FB8553846E6
:10026000867B001D40F82630001F867B0C308255AF
:100270003E46B07B461CBE73044604F13000087055
:100280003A2048702F2088700020C870002528462A
:10029000F0BD0000780C002070B50A480468001D0D
:1002A0000568001D0668344454B1082206492046FA
:1002B00002F057FA042204491031284602F051FA9C
:1002C00070BD0000E8F7FF1F5E00002070B5044617
:1002D000002594F82100022803D00420A063012502
:1002E000C1E02068006820F00E00216808602068E6
:1002F000006820F00100216808605C49206888429D
:1003000052D95A4978392068884201D1012047E002
:10031000564964392068884201D1102040E0534991
:1003200050392068884201D1801539E04F493C3965
:100330002068884201D1801432E04C492839206875
:10034000884202D14FF480302AE0484914392068AD
:10035000884202D14FF4801022E04449206888424C
:1003600001D140041CE042492068884201D10120AB
:1003700016E03F4914312068884201D110200FE077
:100380003B4928312068884201D1801508E038496E
:100390003C312068884201D1801401E04FF4803064
:1003A0003349091F086051E0304978392068884294
:1003B00001D1012047E02D4964392068884201D1EC
:1003C000102040E0294950392068884201D1801529
:1003D00039E026493C392068884201D1801432E056
:1003E000224928392068884202D14FF480302AE01F
:1003F0001E4914392068884202D14FF4801022E04F
:100400001A492068884201D140041CE0184920683C
:10041000884201D1012016E0154914312068884234
:1004200001D110200FE0124928312068884201D103
:10043000801508E00E493C312068884201D18014C3
:1004400001E04FF48030094980394860012084F888
:10045000210000BF002084F8200000BF606B10B1B5
:100460002046616B8847284670BD0000800002402E
:100470000804024070B5044600F0BEF90646254661
:10048000681C10B104480078054400BF00F0B4F9BE
:10049000801BA842FAD370BDA00000202DE9F847C8
:1004A000024600239C467BE14FF0010808FA03F462
:1004B000D1F8008008EA0400A0427DD1DFF8F4A260
:1004C000D1F80480A8EB0A09D0453AD014DCB8F181
:1004D000030F50D009DCB8F1000F31D0B8F1010F93
:1004E0001CD0B8F1020F49D120E0B8F1110F18D09B
:1004F000B8F1120F42D11EE0B9F5881F25D006DCF5
:10050000B9F5803F20D0B9F5801F37D11AE0B9F591
:10051000001F18D0B9F5041F30D117E0D1F80CC076
:100520002DE0D1F80C8008F1040C28E0D1F80C8003
:1005300008F1080C23E0D1F80C8008F10C0C1EE047
:1005400000BF00BF00BF00BF00BF00BFD1F80880E0
:10055000B8F1000F02D14FF0040C0BE0D1F8088085
:10056000B8F1010F03D14FF0080C146102E04FF015
:10057000080C546103E04FF0000C00E000BF00BF26
:10058000FF2801D8904601E002F104084646FF2802
:1005900002D84FEA830803E0A3F108084FEA88086D
:1005A0004746D6F800804FF00F0909FA07F928EA04
:1005B00009080CFA07F900E07AE048EA0908C6F8E9
:1005C0000080D1F8048008F08058B8F1805F6FD1C6
:1005D00000BFDFF8E481D8F8188048F00108DFF8A0
:1005E000D891C9F81880C846D8F8188008F00108D2
:1005F000CDF8008000BF00BF4FEAB9384FEA930939
:1006000058F829504FEA83784FEA18794FF00F08CD
:1006100008FA09F825EA0805DFF8A081424502D169
:100620004FF0000824E0DFF89881424502D14FF0F6
:1006300001081DE0DFF88C81424502D14FF002082D
:1006400016E0DFF88481424502D14FF003080FE045
:10065000DFF87881424502D14FF0040808E0DFF866
:100660007081424502D14FF0050801E04FF00608C5
:100670004FEA83794FEA197908FA09F848EA05053B
:10068000DFF850814FEA930948F82950D1F80480E7
:1006900008F48038B8F5803F0BD1DFF83C81D8F8FA
:1006A000008048EA0008DFF83091C9F800800AE0CD
:1006B00075E0DFF82481D8F8008028EA0008DFF828
:1006C0001891C9F80080D1F8048008F40038B8F512
:1006D000003F0ED1DFF8008108F10408D8F800804F
:1006E00048EA0008DFF8F09009F10409C9F8008031
:1006F0000DE0DFF8E48008F10408D8F8008028EA6B
:100700000008DFF8D49009F10409C9F80080D1F895
:10071000048008F48018B8F5801F0ED1DFF8B88087
:1007200008F10808D8F8008048EA0008DFF8A89027
:1007300009F10809C9F800800DE0DFF89C8008F194
:100740000808D8F8008028EA0008DFF88C9009F142
:100750000809C9F80080D1F8048008F40018B8F539
:10076000001F0ED1DFF8708008F10C08D8F8008067
:1007700048EA0008DFF8609009F10C09C9F8008028
:100780000DE0DFF8548008F10C08D8F8008028EA62
:100790000008DFF8449009F10C09C9F800805B1CDF
:1007A000D1F8008028FA03F8B8F1000F7FF47CAE8E
:1007B000BDE8F88700001110001002400008014059
:1007C000000C0140001001400014014000180140DD
:1007D000001C01400800014000040140C2680A40BA
:1007E0000AB1416100E0016170470AB1016101E0B5
:1007F0000B04036170470000014800687047000067
:10080000980000200348006803490978084401491A
:100810000860704798000020A000002010B508482C
:10082000006840F0100006490860032000F0A8F8B6
:10083000002000F007F800F02BF8002010BD0000A9
:100840000020024070B504460E4800784FF47A71DB
:10085000B1FBF0F00C490968B1FBF0F5284601F056
:10086000FAFB08B1012070BD102C07D200222146EE
:10087000501E00F047F80548046001E00120F2E74F
:100880000020F0E7A0000020A40000209C00002031
:1008900008B500BF1148806940F001000F49886128
:1008A0000846806900F00100009000BF00BF00BF53
:1008B0000846C06940F08050C8610846C06900F031
:1008C0008050009000BF00BF00BF0549486820F07D
:1008D000E06040F00070486000BF08BD00100240BA
:1008E0000000014001460846002809DB00F01F0314
:1008F00001229A4043099B0003F1E023C3F8002141
:1009000000BF70472DE9F05F80460D461646002770
:1009100005F0ECFF074639462A46334601F007004A
:10092000C0F1070ABAF1040F02D94FF0040A01E03E
:10093000C0F1070AD14600F1040ABAF1070F02D24A
:100940004FF0000A01E0A0F1030AD4464FF0010A7B
:100950000AFA09FAAAF1010A0AEA020A0AFA0CFAE0
:100960004FF0010B0BFA0CFBABF1010B0BEA030B85
:100970004AEA0B042146404605F0C0FFBDE8F09F5F
:1009800000BF00F00702064B19684FF6FF0319403D
:10099000044B0B4343EA0221014B196000BF70472F
:1009A0000CED00E00000FA0570B505460C4604F0B9
:1009B0008000802806D104F0070605F1280000EB2E
:1009C000461103E005F5947000EB44111AB90020BC
:1009D0000873CB8004E0012008730B81180C488158
:1009E000002070BD704770B504460D4604F1280123
:1009F00001EB45114A692946D4F8680203F0B4FEB8
:100A000070BD70B504460D4604F5947101EB4511B7
:100A10004A692946D4F8680203F026FF70BD70B514
:100A200004460E4606F08000802808D106F0070133
:100A300004F1280000EB41150120687007E006F082
:100A4000070104F5947000EB41150020687006F072
:100A50000700287000BF94F82802012801D1022065
:100A600070BD012084F8280200BF2946206804F0E8
:100A700042FF00BF002084F8280200BF00BFEFE75C
:100A800070B504460E4606F00F006168884201D931
:100A9000012070BD06F08000802808D106F0070113
:100AA00004F1280000EB41150120687007E006F012
:100AB000070104F5947000EB4115002068700020D8
:100AC000A87006F00700287000BF94F828020128DB
:100AD00001D10220DDE7012084F8280200BF294669
:100AE000206805F068F800BF002084F8280200BFE5
:100AF00000BFCEE770B504460D4600BF94F828024B
:100B0000012801D1022070BD012084F8280200BF15
:100B100005F08000802805D105F00701206805F068
:100B20001CFB02E0206805F015FB00BF002084F8E4
:100B3000280200BF00BFE6E7024601F0070302F506
:100B4000947000EB4310C06970472DE9F0470546EB
:100B50000E4690461F464FF0000906F080008028A0
:100B600008D106F0070105F1280000EB411401202F
:100B7000607007E006F0070105F5947000EB411482
:100B80000020607006F007002070C4F81080E77045
:100B9000607808B12078E081022F01D10020207117
:100BA00000BF95F82802012802D10220BDE8F08795
:100BB000012085F8280200BF2146286804F04CFC7B
:100BC00000BF002085F8280200BF4846EEE72DE967
:100BD000F04105460E461746984606F0070105F512
:100BE000947000EB41146761C4F818800020E06144
:100BF000607006F00700207006F0070020B921465B
:100C0000286805F073F803E02146286805F06EF8BF
:100C10000020BDE8F08170B504460D4605F00700E0
:100C20006168884201D9012070BD05F080008028EC
:100C300008D105F0070104F1280000EB411601205E
:100C4000707005E004F5947000EB4516002070709C
:100C50000120B07005F00700307000BF94F8280242
:100C6000012801D10220DFE7012084F8280200BF1B
:100C70003146206805F00CF805F0070020B904F5AE
:100C80000C71206804F094FF00BF002084F8280253
:100C900000BF00BFC8E72DE9F04105460E461746E4
:100CA000984606F0070105F1280000EB4114676142
:100CB000C4F818800020E0610120607006F0070091
:100CC000207006F0070020B92146286805F00EF8CC
:100CD00003E02146286805F009F80020BDE8F0810E
:100CE00010B50446206805F043FA00F40040B0F562
:100CF000004F02D1204602F044F8206805F038FA8F
:100D000000F48060B0F5806F0ED12068B0F8440028
:100D100020F480602168A1F84400204600F05AF9D0
:100D20000021204600F076F9206805F021FA00F451
:100D30008040B0F5804F07D12068B0F8440020F41F
:100D400080402168A1F84400206805F011FA00F401
:100D50000050B0F5005F07D12068B0F8440020F4DF
:100D600000502168A1F84400206805F001FA00F461
:100D70008050B0F5805F1CD12068B0F840004FF67D
:100D8000FB7108402168A1F840002068B0F84000DD
:100D90004FF6F77108402168A1F84000204600F0A6
:100DA0002BF92068B0F8440020F480502168A1F8A5
:100DB0004400206805F0DCF900F40060B0F5006F35
:100DC0002AD12068B0F8400040F008002168A1F85E
:100DD00040002068B0F8440020F400602168A1F8C9
:100DE00044002068B0F8400040F004002168A1F8F9
:100DF0004000206805F0BCF900F48050B0F5805F39
:100E000007D12068B0F8440020F480502168A1F890
:100E10004400204600F040F9206805F0A9F900F4EC
:100E20000070B0F5007F0AD12068B0F8440020F4CB
:100E300000702168A1F84400204600F0E4F8206822
:100E400005F096F900F48070B0F5807F07D1206836
:100E5000B0F8440020F480702168A1F8440010BD6F
:100E600030B585B0044614B9012005B030BD94F802
:100E7000290228B9002084F82802204600F088F8CA
:100E8000032084F82902206804F088FE142204F16B
:100E900010016846FFF768F994E80F0004F027FD99
:100EA00020B1022084F829020120DEE70021206819
:100EB00005F087F9002526E0012104F1280000EB68
:100EC0004510417004F1280000EB4510057004F155
:100ED000280000EB4510C581002104F1280000EB3B
:100EE0004510C17004F1280000EB4510016104F1C8
:100EF000280000EB4510416104F1280000EB45108B
:100F00008161681CC5B26068A842D5D8002520E080
:100F1000002104F5947000EB4510417004F59470C5
:100F200000EB4510057004F5947000EB4510C1709E
:100F300004F5947000EB4510016104F5947000EB2A
:100F40004510416104F5947000EB45108161681C07
:100F5000C5B26068A842DBD8142204F110016846CB
:100F6000FFF702F994E80F0004F009FE20B1022017
:100F700084F82902012078E7002084F82400012069
:100F800084F82902206804F0F7FD00206DE70000D6
:100F900038B504460D492068884215D100BF0C4879
:100FA000C06940F400000A49C8610846C06900F4FD
:100FB0000000009000BF00BF002211461420FFF780
:100FC000A1FC1420FFF78EFC38BD0000005C00403F
:100FD0000010024070B504460125A068022801D027
:100FE000FFF726F92946D4F8680203F079FDD4F812
:100FF000680203F02BFD70BD10B50446D4F86802FA
:1010000003F052FD10BD10B50446D4F8680203F099
:1010100056FD10BD70B504460D4600BF94F8280279
:10102000012801D1022070BD012084F8280200BFF0
:1010300084F824502946206805F0C6F800BF002037
:1010400084F8280200BF00BFEDE710B5044604F5A0
:101050000C71D4F8680203F05AFD10BD10B50446B7
:1010600000BF94F82802012801D1022010BD012000
:1010700084F8280200BF01212046FFF7B3FC206856
:1010800004F077FD206805F05BF800BF002084F8CD
:10109000280200BF00BFE9E710B50446D4F8680293
:1010A00003F08EFDA06928B10348006840F00600F7
:1010B0000149086010BD000010ED00E00120014969
:1010C0000862704700000E422DE9F04385B00646E5
:1010D00042A30FCB01AC0FC444A0006800904FF0B6
:1010E0000008002500270024A146042E36D004DC89
:1010F000012E3BD0022E6BD15FE0082E32D0102E95
:1011000066D13B484468006800F0807000B301A8D5
:10111000C4F38341475C04F4803070B134484068C4
:10112000C0F340401DF8008004F4803040B13148E5
:10113000B0FBF8F000FB07F502E02F4807FB00F5D5
:101140002B48406800F48000B0F5800F01D1A9461B
:1011500003E068000321B0FBF1F93AE000F0D2F9B6
:10116000814636E000F0CEF9814632E02048046A3C
:1011700004F44070B0F5807F05D104F0020010B196
:101180004FF4004918E004F44070B0F5007F07D137
:101190001748406A00F0020010B149F640490BE0E0
:1011A00004F44070B0F5407F06D11148006800F4A7
:1011B000003008B14FF224490BE000F093F90C49DC
:1011C0004968C1F38131491C4900B0FBF1F900E0E5
:1011D00000BF00BF484605B0BDE8F0830203040528
:1011E000060708090A0B0C0D0E0F10100102000073
:1011F0000010024000127A0000093D00F8B50446D4
:1012000000260025207800F0010000286BD0002780
:101210004348C06900F0805070B900BF4048C069C1
:1012200040F080503E49C8610846C06900F08050D7
:10123000009000BF00BF01273A48006800F48070AA
:10124000B0B93848006840F4807036490860FFF74C
:10125000D3FA064606E0FFF7CFFA801B642801D9CF
:101260000320F8BD2F48006800F480700028F2D0F9
:101270002B48006A00F440752DB3A08800F440703C
:10128000A84220D02648006A20F440750120264953
:101290000860002008602248056205F0010090B156
:1012A000FFF7AAFA064608E0FFF7A6FA801B41F20C
:1012B0008831884201D90320D3E71948006A00F039
:1012C00002000028F0D01648006A20F440706168DF
:1012D000084313490862012F04D10846C06920F071
:1012E0008050C86100BF207800F00200022807D1BA
:1012F0000B48406820F44040A16808430849486012
:10130000207800F01000102807D10548406820F42C
:10131000800061690843024948600020A1E700009D
:1013200000100240007000404004424270B5044684
:101330000D460CB9012070BD5A48006800F0070046
:10134000A8420ED25748006820F0070028435549AC
:1013500008600846006800F00700A84201D001209C
:10136000E9E7207800F0020002281DD1207800F083
:101370000400042805D14C48406840F4E0604A4924
:101380004860207800F00800082805D146484068E9
:1013900040F46050444948604348406820F0F00001
:1013A000A168084340494860207800F0010078B304
:1013B0006068012806D13C48006800F4003090B90C
:1013C0000120B8E76068022806D13748006800F0BD
:1013D000007040B90120AEE73348006800F0020019
:1013E00008B90120A7E73048406820F00300616891
:1013F00008432D494860FFF7FFF9064609E0FFF76B
:10140000FBF9801B41F28831884202D9032092E720
:1014100007E02548406800F00C006168B0EB810FE0
:10142000EDD12048006800F00700A8420ED91D4801
:10143000006820F0070028431A4908600846006841
:1014400000F00700A84201D0012074E7207800F0E6
:101450000400042807D11448406820F4E060E168E3
:10146000084311494860207800F00800082808D196
:101470000D48406820F46050216940EAC1000A49E3
:10148000486000F03FF808494968C1F30311074A72
:10149000515CC8400649086006480068FFF7D2F969
:1014A000002048E700200240001002407A8C00082B
:1014B000A40000209C000020014800687047000044
:1014C000A400002000B5FFF7F7FF04494968C1F305
:1014D0000221034A515CC84000BD000000100240D8
:1014E0008A8C000800B5FFF7E7FF04494968C1F39B
:1014F000C221034A515CC84000BD000000100240F8
:101500008A8C0008F0B585B00FF26C0C9CE8E010F6
:1015100001A8A0E8E0101CA52D680095002100227C
:10152000002300240020194D696801F00C05F5B175
:10153000042D02D0082D19D101E0154819E001ADA4
:10154000C1F38346AC5D01F4803555B10F4D6D6834
:10155000C5F340451DF805200D4D6543B5FBF2F37D
:1015600002E00C4D04FB05F3184602E000BF0848FA
:1015700000BF00BF05B0F0BD02030405060708095F
:101580000A0B0C0D0E0F101001020000001002409B
:1015900000127A0000093D00F8B504460CB901209C
:1015A000F8BD207800F00100002878D0F8484068A5
:1015B00000F00C0004280CD0F548406800F00C0046
:1015C000082811D1F248406800F48030B0F5803F1F
:1015D0000AD1EF48006800F4003000285FD060684E
:1015E00000285CD10120DBE700BF6068B0F5803FD8
:1015F00006D1E748006840F48030E549086028E0FB
:10160000606858B9E248006820F48030E04908601A
:101610000846006820F4802008601AE06068B0F591
:10162000A02F0BD1DA48006840F48020D849086028
:101630000846006840F4803008600AE0D44800683A
:1016400020F48030D24908600846006820F48020E9
:10165000086000BF606888B1FFF7CEF8054606E075
:10166000FFF7CAF8401B642801D9032098E7C8484F
:10167000006800F400300028F2D010E0FFF7BCF85A
:10168000054606E0FFF7B8F8401B642801D903209F
:1016900086E7BF48006800F400300028F2D12078C7
:1016A00000F00200022857D1B948406800F00C0051
:1016B00050B1B748406800F00C00082818D1B44871
:1016C000406800F4803098B9B148006800F002002A
:1016D00020B12069012801D0012061E7AC480068F1
:1016E00020F0F800616940EAC100A949086033E0D0
:1016F0002069E8B10120A7490860FFF77DF8054699
:1017000006E0FFF779F8401B022801D9032047E7DC
:101710009F48006800F002000028F2D09C48006852
:1017200020F0F800616940EAC1009949086013E0BF
:10173000002098490860FFF75FF8054606E0FFF7CC
:101740005BF8401B022801D9032029E79048006874
:1017500000F002000028F2D1207800F008000828EC
:101760002DD1A069B8B101208B490860FFF744F87A
:10177000054606E0FFF740F8401B022801D9032088
:101780000EE78348406A00F002000028F2D00120F2
:1017900001F0C4FC13E000207F490860FFF72CF83B
:1017A000054606E0FFF728F8401B022801D9032070
:1017B000F6E67748406A00F002000028F2D120786F
:1017C00000F00400042873D100277148C06900F0BC
:1017D000805070B900BF6E48C06940F080506C49BD
:1017E000C8610846C06900F08050009000BF00BF8B
:1017F00001276A48006800F48070B0B96748006843
:1018000040F4807065490860FEF7F6FF054606E083
:10181000FEF7F2FF401B642801D90320C0E65F48B1
:10182000006800F480700028F2D000BFE068012852
:1018300006D15748006A40F001005549086227E088
:10184000E06858B95248006A20F001005049086227
:101850000846006A20F00400086219E0E0680528E4
:101860000BD14B48006A40F0040049490862084621
:10187000006A40F0010008620AE04548006A20F072
:101880000100434908620846006A20F0040008622B
:1018900000BFE068A0B1FEF7AFFF054609E0FEF724
:1018A000ABFF401B41F28831884202D9032077E622
:1018B00022E03748006A00F002000028EFD012E072
:1018C000FEF79AFF054608E0FEF796FF401B41F23F
:1018D0008831884201D9032062E62D48006A00F071
:1018E00002000028F0D1012F05D12948C06920F05D
:1018F00080502749C86100BFE069C8B324484068E8
:1019000000F00C00082860D0E069022848D10020CF
:1019100020490866FEF770FF054606E0FEF76CFFFB
:10192000401B022801D903203AE61948006800F05C
:1019300000700028F2D1206AB0F5803F07D114482A
:10194000406820F40030A168084311494860D4E998
:10195000080108430E49496821F4741108430C49F1
:10196000486001200B490866FEF746FF054607E080
:101970003DE0FEF741FF401B022801D903200FE69E
:101980000348006800F000700028F2D02FE000004B
:1019900000100240000042428004424200700040B9
:1019A000002014490866FEF727FF054606E0FEF70B
:1019B00023FF401B022801D90320F1E50E480068EF
:1019C00000F000700028F2D111E0E069012800D198
:1019D000E6E50948466806F48031206A814204D170
:1019E00006F47011606A814201D00120D8E5002020
:1019F000D6E50000000042420010024070B50446E7
:101A000000250CB9012070BD607C20B90020207435
:101A1000204600F05BF802206074204600F060F978
:101A200018B1042060740120EDE7204601F095FB19
:101A300018B1042060740120E5E72068406820F0B8
:101A4000070021684860A06828B11F48006820F09E
:101A500001001D4908601C48001F006820F46070E8
:101A6000A16808431849091F08606068401C08B154
:101A7000656809E00120FFF727FB05461DB9042032
:101A800060740120BFE76D1E2068806820F00F00A1
:101A900040EA1540216888602068C06865F30F003F
:101AA0002168C860204601F075FB18B104206074FD
:101AB0000120A8E70021E17301216173A1730120D6
:101AC000607400209FE70000306C004038B5044689
:101AD0000B492068884212D1FFF7F0FA00BF09488D
:101AE000C06940F000600749C8610846C06900F05D
:101AF0000060009000BF00BF01200349086038BDAE
:101B000000280040001002403C0442422DE9F0470A
:101B100004460D46904600260027B14604B115B98B
:101B20000120BDE8F08700BF207C012801D1022000
:101B3000F7E70120207400BF02206074B8F1000FA5
:101B400006D1E978E17369786173A978A1730BE034
:101B5000E87801F0F7FAE073687801F0F3FA60735F
:101B6000A87801F0EFFAA073A27B617BE07B01F023
:101B700054FB2073207B2870204601F034FB06467E
:101B80004FF46160B6FBF0F9B9F1180F2FD91820A6
:101B9000B9FBF0F000EB4000C000C0EB4011C1EB1E
:101BA0000020A6EB00163146204601F08FFB38B12D
:101BB0000420607400BF0020207400BF0120B0E743
:101BC000204601F004FB0746781C80B1B7420ED2D4
:101BD0000B4807443946204601F061FB38B1042028
:101BE000607400BF0020207400BF012099E701202D
:101BF000607400BF0020207400BF00BF91E70000A8
:101C0000805101002DE9F04704460D46904600261C
:101C1000002704B115B90120BDE8F08700BF207C82
:101C2000012801D10220F7E70120207400BF022023
:101C30006074B8F1000F0BD128784FF4616148430C
:101C40006978C1EB011100EB8100A978461812E018
:101C5000287801F077FA4FF4616100FB01F96878A8
:101C600001F070FAC0EB001009EB8009A87801F0D0
:101C700069FA09EB00063146204601F027FB38B12E
:101C80000420607400BF0020207400BF0120C3E75F
:101C90002068406820F0050021684860204601F077
:101CA00096FA0746781C80B1B7420ED20B4807441B
:101CB0003946204601F0F3FA38B10420607400BFC1
:101CC0000020207400BF0120A6E70120607400BF3F
:101CD0000020207400BF00BF9EE70000805101007B
:101CE00070B5044600250CB9012070BD206840681D
:101CF00020F0080021684860FEF77EFD054607E0F9
:101D0000FEF77AFD401BB0F57A7F01D90320ECE79E
:101D10002068406800F008000028F1D00020E4E7C7
:101D200010B504460CB9012010BD606A00B900BFAF
:101D30000021A16294F8510028B9002084F85000D5
:101D4000204600F031F8022084F851002068006835
:101D500020F0400021680860D4E901010843E168EF
:101D600008432169084361690843218B01F400712C
:101D70000843E1690843216A0843A16A08432168CE
:101D800008600421A06901EA1040216848602068C9
:101D9000C06920F400602168C861002060650120EE
:101DA00084F851000020BFE710B586B0044600203B
:101DB00002900390049005901949206888422DD123
:101DC00000BF1848806940F4805016498861084671
:101DD000806900F48050019000BF00BF00BF08463A
:101DE000806940F0040088610846806900F00400C2
:101DF000019000BF00BFA0200290022003900320AA
:101E0000059002A90848FEF749FB402002900020F7
:101E10000390049002A90448FEF740FB06B010BDF1
:101E20000030014000100240000801402DE9FF5F32
:101E30000446884691461D460E9E012002900020D1
:101E4000019000BF94F85000012803D1022004B093
:101E5000BDE8F09F012084F8500000BFFEF7CCFCE5
:101E6000074694F851B060680390AA46BBF1010F91
:101E70000BD00398B0F5827F04D1A06810B9BBF1F4
:101E8000040F02D002200190DBE0B8F1000F03D074
:101E9000B9F1000F00D015B901200190D1E094F8FC
:101EA0005100042802D0052084F85100002060650C
:101EB000C4F83890E587A587C4F83080E586A58604
:101EC000206460642068006800F04000402805D06D
:101ED0002068006840F0400021680860E068B0F5C4
:101EE000006F4AD1606810B1BAF1010F09D1206BBF
:101EF00000882168C860206B801C2063E08E401E33
:101F0000E08633E02068806800F00200022810D1EB
:101F1000E08E70B1029801280BD1206B00882168F7
:101F2000C860206B801C2063E08E401EE08600208D
:101F300002902068806800F0010068B1E08F58B11D
:101F40002068C068A16B0880A06B801CA063E08F34
:101F5000401EE08701200290FEF74EFCC01BB042FD
:101F600004D3701C10B1032001906AE0E08E0028B9
:101F7000C8D1E08F0028C5D14AE0606810B1BAF13D
:101F8000010F09D1206B007821680873206B401C79
:101F90002063E08E401EE08634E02068806800F018
:101FA0000200022810D1E08E70B1029801280BD1F6
:101FB000206B007821680873206B401C2063E08E42
:101FC000401EE086002002902068806800F001003A
:101FD00068B1E08F58B12068C068A16B0870A06B31
:101FE000401CA063E08F401EE08701200290FEF7B6
:101FF00003FCC01BB04201D3701C00B916B903200A
:1020000001901EE0E08E0028C7D1E08F0028C4D1E7
:102010003A463146204601F065FD20B1012001908D
:10202000202060650DE0A06850B900BF002000903E
:102030002068C068009020688068009000BF00BFE2
:1020400000BF012084F8510000BF002084F8500038
:1020500000BF0198FBE670B504462546681EB0F146
:10206000807F01D301200FE0681E4FF0E02148611E
:102070000F214FF0FF3004F041FC00204FF0E02131
:10208000886107200861002070BD7047704710B557
:10209000024600BF92F83C00012801D1022010BD89
:1020A000012082F83C0000BF022082F83D00106849
:1020B00043681068846823F070030868034324F0C1
:1020C00080044868044310684360106884600120FD
:1020D00082F83D0000BF002082F83C0000BF00BF36
:1020E000DDE710B504460CB9012010BD94F83D00A1
:1020F00028B9002084F83C00204600F00DF80220AA
:1021000084F83D00211D206801F0EEFD012084F8D7
:102110003D000020E9E7000038B504462068B0F132
:10212000804F16D100BF1448C06940F00100124929
:10213000C8610846C06900F00100009000BF00BF00
:10214000002211461C20FEF7DDFB1C20FEF7CAFB17
:1021500011E00A49206888420DD100BF0648C069D5
:1021600040F002000449C8610846C06900F002005E
:10217000009000BF00BF38BD0010024000040040C6
:102180002DE9F04104460D4600BF94F83C000128BB
:1021900002D10220BDE8F081012084F83C0000BF9C
:1021A000022084F83D002068866826F0770626F431
:1021B0007F46206886602868502833D00CDC2028B1
:1021C00050D004DC00284BD0102851D149E03028F1
:1021D00049D040284CD139E060282DD0702807D054
:1021E000B0F5805F03D0B0F5005F41D10DE040E075
:1021F000D5E902136A68206801F0C4FD206886688A
:1022000046F077062068866033E0D5E902136A68F5
:10221000206801F0B7FD2068806840F480402168A4
:10222000886026E0EA686968206801F0BFFD5021F7
:10223000206801F0B2FD1CE0EA686968206801F0DE
:10224000C8FD6021206801F0A8FD12E0EA68696815
:10225000206801F0ABFD4021206801F09EFD08E000
:1022600000BF00BF00BF2968206801F096FD00E0B4
:1022700000BF00BF012084F83D0000BF002084F8AB
:102280003C0000BF00BF85E7704710B504462068DA
:102290000069C0F34000D8B12068C068C0F34000B6
:1022A000B0B16FF00200216808610120207720683A
:1022B000806900F0030018B12046FFF7E5FF05E054
:1022C000204600F0ADF8204600F0ABF80020207763
:1022D00020680069C0F38000D8B12068C068C0F3EE
:1022E0008000B0B16FF004002168086102202077FF
:1022F0002068806900F4407018B12046FFF7C4FFE1
:1023000005E0204600F08CF8204600F08AF8002016
:10231000207720680069C0F3C000D8B12068C06889
:10232000C0F3C000B0B16FF008002168086104205C
:1023300020772068C06900F0030018B12046FFF73D
:10234000A3FF05E0204600F06BF8204600F069F896
:102350000020207720680069C0F30010D8B1206801
:10236000C068C0F30010B0B16FF0100021680861C0
:10237000082020772068C06900F4407018B120461A
:10238000FFF782FF05E0204600F04AF8204600F003
:1023900048F8002020772068006900F0010058B15B
:1023A0002068C06800F0010030B16FF001002168C2
:1023B0000861204600F036F820680069C0F3C010BC
:1023C00058B12068C068C0F3C01030B16FF0800011
:1023D000216808612046FFF758FE20680069C0F3B5
:1023E000801058B12068C068C0F3801030B16FF021
:1023F000400021680861204600F015F82068006957
:10240000C0F3401058B12068C068C0F3401030B12C
:102410006FF02000216808612046FFF737FE10BDED
:102420007047704770477047704700002DE9F047CC
:102430000446206805682068C668206847694FF030
:102440000008C14605F00F08B8F1000F0AD105F0E9
:10245000200038B106F0200020B1204601F0F7FC42
:10246000BDE8F087B8F1000F6DD007F0010018B992
:1024700006F49070002866D005F0010030B106F433
:10248000807018B1E06B40F00100E06305F00400DB
:1024900030B107F0010018B1E06B40F00200E063DA
:1024A00005F0020030B107F0010018B1E06B40F018
:1024B0000400E06305F0080030B107F0010018B136
:1024C000E06B40F00800E063E06B68B305F02000CB
:1024D00028B106F0200010B1204601F0B8FC2068B9
:1024E0004069C0F38019E06B00F0080010B9B9F141
:1024F000000F22D0204601F08AFC2068406900F0DD
:102500004000B0B12068406920F040002168486177
:10251000606B50B11748616B4863606BFDF7D6FE86
:1025200010B1606B416B88470CE02046FFF77CFFE1
:1025300008E02046FFF778FF04E02046FFF774FF2D
:102540000020E0638CE705F0800030B106F08000E9
:1025500018B1204601F09EFD82E705F0400030B141
:1025600006F0400018B1204601F061FC78E700BF9A
:1025700076E70000FB3D000810B504460CB90120C9
:1025800010BDA06900B100E000BF94F8390028B97F
:10259000002084F83800204600F028F8242084F831
:1025A00039002068C06820F400502168C8602046C7
:1025B00001F0A0FC2068006920F4904021680861C7
:1025C0002068406920F02A00216848612068C068BE
:1025D00040F400502168C8600020E063202084F8A7
:1025E000390084F83A000020CAE7000010B586B030
:1025F0000446002002900390049005901E49206834
:10260000884236D100BF1D48806940F480401B4994
:1026100088610846806900F48040019000BF00BFD7
:1026200000BF0846806940F0040088610846806960
:1026300000F00400019000BF00BF48150290022086
:1026400003900320059002A90D48FDF727FF4FF4E2
:102650008060029000200390049002A90848FDF7D2
:102660001DFF002211462520FEF74CF92520FEF71C
:1026700039F906B010BD00000038014000100240DA
:102680000008014070472DE9F84304460D46164600
:102690001F464FF0000994F8390020285CD105B19D
:1026A00016B90120BDE8F88300BF94F8380001286E
:1026B00001D10220F6E7012084F8380000BF002095
:1026C000E063212084F83900FEF796F88146A6845D
:1026D000E6842BE0E08C401EE084A068B0F5805FCB
:1026E00016D14B46002280212046009701F006FDBE
:1026F00008B10320D6E7A846B8F80000C0F30800E8
:1027000021684860206908B9AD1C0FE06D1C0DE020
:102710004B46002280212046009701F0EFFC08B1D3
:102720000320BFE715F8010B21684860E08C002802
:10273000D0D14B46002240212046009701F0DEFC1C
:1027400008B10320AEE7202084F8390000BF002044
:1027500084F8380000BFA5E70220A3E7704700BF58
:10276000FEE730B50B46002100BF16E00A24B4EBAB
:10277000107F05D9302404EB107403F8114005E0F4
:10278000412404EB10740A3C03F8114000010025B9
:102790004C00641C1D554C1CE1B29142E6DB30BD7F
:1027A00070B50546D5F8B8424FF40670005D48B9DB
:1027B0004FF40570005928B1607A18B901212846F4
:1027C00002F0DCF98121284602F0D8F9607A02286B
:1027D00006D11F2304F503720121284602F01EF9D9
:1027E00070BD000070B50546D5F8B8424FF40470CE
:1027F00001594FF40C7001514FF4057001594FF419
:102800000D7001510121284602F094F81F2810D1C3
:102810002A49D4F80C0288420BD140F21920005DFD
:10282000012806D84815005D18B14815005D10282C
:102830000DD940F21920015D20230522284601F020
:102840003FF8022060722846FFF7AAFF33E040F20B
:102850001920015D04F21B22284600F0C5FD002866
:102860000BDA207A052804D10121284600F0C0F8AF
:1028700021E02846FFF794FF1DE0207A022819D0B6
:10288000207A012816D0207A032813D0608930B12D
:10289000628904F10C01284600F0C8F80BE0608959
:1028A00020B90021284600F0A3F804E02846FFF7ED
:1028B00077FF00E070BD00BFFCE7000055534243C6
:1028C00070B506460D46D6F8B842607A022806D1A1
:1028D0008121304602F052F9002060720CE005F0D0
:1028E0008000802807D1607A012804D00121304679
:1028F00000F07EF800E070BD00BFFCE770B5054653
:102900000E46D5F8B842207A022804D0032812D007
:10291000042815D10EE040F21920015D04F21B22BB
:10292000284600F061FD002803DA0121284600F066
:102930005FF806E000BF0021284600F059F800E0EB
:1029400000BF00BF70BD70B505460E46D5F8B84251
:10295000207A10B1012813D103E02846FFF742FF87
:102960000FE040F21920015D04F21B22284600F01E
:102970003BFD002803DA0121284600F039F800E089
:1029800000BF00BF70BDD0F8B81200220A727047B5
:1029900070B50546D5F8B84200202072607284F800
:1029A0005D0284F85C02D5F8BC020168002088470B
:1029B0000121284601F0ABFF8121284601F0A7FF45
:1029C0001F2304F503720121284602F027F870BD89
:1029D00070B50546D5F8B84200202072012060721B
:1029E0001F2304F503720121284602F017F870BD79
:1029F00070B505460E46D5F8B8420B48C4F82C020F
:102A00004FF40E700655002020720D2304F50B7252
:102A10008121284602F0DEF81F2304F5037201210C
:102A2000284601F0FBFF70BD555342532DE9F0419C
:102A300006460F461546D6F8B8424FF405700059C1
:102A4000A84203D24FF40570005900E028461FFA4F
:102A500080F84FF40D700059411B4FF40D70015177
:102A60000021001D01550420207243463A46812171
:102A7000304602F0AFF8BDE8F081000010B5034920
:102A80000348FDF7D6FB0349087010BD190000206C
:102A9000040000201800002000B585B0002001903F
:102AA00002900390049000BF2948806940F0100014
:102AB000274988610846806900F01000009000BF37
:102AC00000BF00BF0846806940F0200088610846CA
:102AD000806900F02000009000BF00BF00BF0846E2
:102AE000806940F0040088610846806900F00400B5
:102AF000009000BF00BF002289151648FDF775FE43
:102B0000002204211448FDF770FE42F202000190F9
:102B1000002002900120039001A91048FDF7BEFC9F
:102B20004FF480700190012002900390049001A95D
:102B30000848FDF7B3FC04200190012002900390A7
:102B4000049001A90448FDF7A9FC05B000BD0000F0
:102B50000010024000080140001401400010014034
:102B60001CB500200190009019481A4908604FF0E8
:102B7000FF3048604FF4807116488160FEF73EFFD9
:102B800008B1FDF755FB00208DF804008DF8050015
:102B90008DF80600012201A90E48FFF733F808B1AD
:102BA000FDF746FB04208DF8000008208DF8010099
:102BB00027208DF8020000208DF8030001226946CD
:102BC0000448FEF7A3FF08B1FDF732FB1CBD00006F
:102BD00000280040AC01002010B50F480F490860E4
:102BE0004FF48270486000210C488160C16002216E
:102BF000016101214161490281613821C1610021E6
:102C00000162416281620A21C162FFF789F808B15D
:102C1000FDF70EFB10BD000000300140C001002098
:102C200000B587B0002003900490059006900190B5
:102C300002904FF080401449086042F27F50486093
:102C400000211148816040F2F311C160002101614F
:102C50008161FFF746FA08B1FDF7EAFA4FF48050B8
:102C6000039003A90848FFF78BFA08B1FDF7E0FAD3
:102C700000200190029001A90348FFF708FA08B16B
:102C8000FDF7D6FA07B000BD1802002000B587B0E6
:102C90000020039004900590069001900290144843
:102CA0001449086042F27F50486000211148816059
:102CB0003121C160002101618161FFF712FA08B181
:102CC000FDF7B6FA4FF48050039003A90948FFF7C7
:102CD00057FA08B1FDF7ACFA00200190029001A963
:102CE0000448FFF7D4F908B1FDF7A2FA07B000BD18
:102CF000000400405802002010B50B480B49086042
:102D00004FF4E1304860002108488160C1600161F2
:102D10000C21416100218161C161FFF72DFC08B1E7
:102D2000FDF786FA10BD000000380140980200202F
:102D300010B500220D490E4801F0BCFC08B1FDF7AA
:102D400077FA0C490A4802F0E5F808B1FDF770FA85
:102D50000949074801F0E1FF08B1FDF769FA0448A5
:102D600002F0C0F908B1FDF763FA10BD2800002099
:102D7000D8020020B40000207800002000BFFEE749
:102D800070472DE9F0470546BDE12868B0F844904A
:102D900009F00F06002E7ED109F01000B0BB00BF75
:102DA0002968098848F60F7201EA020040F40041E0
:102DB0002A68118000BF05F128042868B0F8501077
:102DC000207801EBC000801C296801F5806131F892
:102DD0001000C0F30900E061E169606908446061C6
:102DE00000212846FDF7FFFD95F824000028CBD0F0
:102DF000A0690028C8D195F8240040F08000296817
:102E0000A1F84C00002085F824007CE1FFE705F5DF
:102E100094742868B0F8008008F4006030B3286823
:102E2000B0F85010207801EBC000801D296801F532
:102E3000806131F81000C0F30900E061A18B8BB212
:102E4000E28805F50C71286803F096F900BF29683F
:102E5000098840F68F7201EA020040F080012A687A
:102E6000118000BF2846FEF7F0F84CE108F400405E
:102E7000002889D000BF2968098840F68F7201EACE
:102E8000020040F080012A68118000BF2868B0F875
:102E90005010207800E069E001EBC000801D296837
:102EA00001F5806131F81000C0F30900E061E069CC
:102EB00090B1606980B1B4F81CC01FFA8CF3E2884D
:102EC0006169286803F058F9E16960690844606144
:102ED00000212846FDF795FD00BF2A682968B1F852
:102EE00050100A4402F20C41084600BF236953B94E
:102EF000038848F2FF3C03EA0C030380038843F491
:102F0000004303801EE023693E2B0DD800BF2369D8
:102F10005908237C03F0010303B1491C4FF6FF73EA
:102F200003EA812303800DE000BF23695909237C54
:102F300003F01F0303B9491E4FF4004343EA812302
:102F4000038000BF00BF00BF00BF296809884BF69F
:102F50008F7201EA020080F4805080F4005040F447
:102F6000004141F080012A681180CCE0710028689E
:102F700030F8118008F4004000287ED000BF7200B5
:102F8000296831F8121040F68F7201EA020040F011
:102F9000800173002A6822F8131000BF05F59470B1
:102FA00000EB4614207BB0B92868B0F850102078A8
:102FB00001EBC000801D296801F5806131F8100027
:102FC000C0F30907002F4FD0E28861693B462868AB
:102FD00003F0D2F848E021784900286830F8110061
:102FE00000F48040A8B12868B0F85010207801EBB8
:102FF000C000801C296801F5806131F81000C0F321
:103000000907DFB1228961693B46286803F0B4F8FB
:1030100014E02868B0F85010207801EBC000801D43
:10302000296801F5806131F81000C0F309072FB15C
:10303000628961693B46286803F09EF800BF00BFC3
:1030400022785200296831F8121048F68F7201EA8E
:10305000020040F4004141F0C00123785B002A687F
:1030600022F8131000BF00BFE0693844E0616069D6
:1030700038446061A06920B100E00DE02069B842E9
:1030800004D921782846FDF7BCFC05E021782846C4
:10309000D4E90523FDF79BFD08F0800060B305F13E
:1030A000280000EB461400BF7200296831F81210A6
:1030B00048F60F7201EA020040F4004173002A68EA
:1030C00022F8131000BF2868B0F85010207801EBE8
:1030D000C000801C296801F5806131F81000C0F340
:1030E0000900E061E169606908446061A06920B994
:1030F00021782846FDF777FC05E021782846D4E9B9
:103100000523FDF7C8FD2868B0F8440000F400402E
:1031100000287FF43AAEBDE8F087704708B508494B
:103120000968C9084FF47A72B1FBF2F1414300918A
:1031300000BF00BF00994A1E00920029F9D108BDC6
:10314000A4000020014600BF080900EB80004200F7
:1031500001F00F001044C0B2704770B5044600255E
:10316000FDF74AFB054607E0FDF746FB401BB0F5BF
:103170007A7F01D9032070BD2068406800F02000EC
:103180000028F1D02068406840F0100021684860B5
:103190000020F0E770B5044600252068406820F064
:1031A000100021684860FDF727FB054607E0FDF7A2
:1031B00023FB401BB0F57A7F01D9032070BD206846
:1031C000406800F020000028F1D00020F6E701461A
:1031D000002200230868006A82B20868406A83B24D
:1031E00043EA0240704730B5014600220023002424
:1031F00000200D68AD69AAB20D68ED69ACB20D682A
:10320000AD69ABB29A4205D00D68ED6963F31F4515
:10321000284601E044EA024030BDF0B504460B46C2
:103220000021002504F5FA61032B1BD2C3EBC30078
:1032300000EB03100926B0FBF6F01044001D461801
:10324000481E06EB90066427B0FBF7F0361A481EBE
:10325000BF00B0FBF7F030440726B0FBF6F706FBE3
:1032600017051AE0C3EBC30000EB03100926B0FBFF
:10327000F6F01044001D084400EB91006426B1FBF9
:10328000F6F6801B4FF4C876B1FBF6F63044801E8C
:103290000726B0FBF6F706FB1705E8B2F0BD70B5E0
:1032A00004460D4600262046FFF757FF08B10126C9
:1032B0000AE0280C21680862A8B22168486220460A
:1032C000FFF768FF00B10126304670BD70B50446B7
:1032D0000D4600262046FFF740FF08B101260AE010
:1032E000280C21688861A8B22168C8612046FFF7D0
:1032F00051FF00B10126304670BD2DE9F041044672
:103300000F4615461E46D4F8B882A819D8F86012A0
:10331000884209D9212305223946204600F0D0FAF7
:103320004FF0FF30BDE8F0810020FBE7F0B5044628
:103330000E46D4F8B832507800F0010060B1072191
:10334000598106E0481E81B21048475C03F10C0029
:1033500047540029F6D116E0D4F8BC02C06906EB48
:10336000C60700EB87052879411D1079884200DCEB
:103370001179598105E0481E81B26F5C03F10C00A0
:1033800047540029F7D10020F0BD0000BE8C000892
:1033900070B503460C4615460821D3F8B822518172
:1033A00006E0481E81B20448465C02F10C00465417
:1033B0000029F6D1002070BDCD8C000870B5034601
:1033C0000C461546D3F8B8220821518106E0481E64
:1033D00081B20448465C02F10C0046540029F6D143
:1033E000002070BDC58C000870B505460E46144619
:1033F0002078232845D00DDC1A2836D005DCB0B162
:1034000003281AD012285AD11DE01B2821D01E28CB
:1034100055D124E02A2846D004DC252837D0282896
:103420004DD13AE02F2844D05A2848D123E02246F3
:103430003146284600F06CFA4AE0224631462846DA
:1034400000F0FBF944E0224631462846FFF76EFFC4
:103450003EE022463146284600F052FA38E0224645
:103460003146284600F04CFA32E0224631462846E2
:10347000FFF7A4FF2CE0224631462846FFF788FFDD
:1034800026E022463146284600F092F920E0224606
:103490003146284600F04CF91AE0224631462846CB
:1034A00000F0DDF814E022463146284600F081FAAB
:1034B0000EE022463146284600F055FA08E0202367
:1034C00005223146284600F0FBF94FF0FF3070BD71
:1034D00000BF0020FBE72DE9F04106460F46D6F875
:1034E000B842B4F85E12D4F8680200FB01F5B5F5F5
:1034F000007F01D2284601E04FF400700546B4F881
:103500005E02B5FBF0F01FFA80F8D4F86422D6F81A
:10351000BC02434604F10C01D0F810C03846E04725
:10352000002809DA112304223946304600F0C8F990
:103530004FF0FF30BDE8F081ABB204F10C02812105
:10354000304601F047FBB4F85E02B5FBF0F0D4F86A
:1035500064120844C4F86402B4F85E02B5FBF0F0EB
:10356000D4F86812081AC4F868024FF40D700059B4
:10357000411B4FF40D700151D4F8680208B90320C3
:1035800020720020D6E72DE9F04106460F46D6F816
:10359000B842B4F85E12D4F8680200FB01F5B5F544
:1035A000007F01D2284601E04FF400700546B4F8D0
:1035B0005E02B5FBF0F01FFA80F8D4F86422D6F86A
:1035C000BC02434604F10C01D0F814C03846E04771
:1035D000002809DA032304223946304600F070F946
:1035E0004FF0FF30BDE8F081B4F85E02B5FBF0F0BB
:1035F000D4F864120844C4F86402B4F85E02B5FB5F
:10360000F0F0D4F86812081AC4F868024FF40D708C
:103610000059411B4FF40D700151D4F8680220B9D4
:1036200000213046FFF7E4F917E0B4F85E12D4F851
:1036300068024843B0F5007F05D2B4F85E12D4F8B2
:103640006802484301E04FF400700546ABB204F154
:103650000C020121304601F0E1F90020C2E72DE91A
:10366000F04106460F461546D6F8B842207A0028A3
:1036700056D14FF40670005D00F0800080280BD01A
:1036800040F21920015D20230522304600F018F990
:103690004FF0FF30BDE8F081D6F8BC0281683846B3
:1036A000884740B13A2302223946304600F008F9F3
:1036B0004FF0FF30EEE7A8780006E97840EA0140D5
:1036C000297940EA012069790843C4F86402287A1C
:1036D000E97940EA0120C4F868023946304604F529
:1036E00019720CCAFFF709FE002802DA4FF0FF300A
:1036F000D0E702202072B4F85E12D4F86802484382
:103700004FF40571095988420AD040F21920015D31
:1037100020230522304600F0D3F84FF0FF30B9E700
:103720004FF40070608139463046FFF7D4FEB1E7B0
:103730002DE9F04105460E461746D5F8B842D5F8B2
:10374000BC0204F25E22911C43683046984748B19F
:103750003A2302223146284600F0B2F84FF0FF30FB
:10376000BDE8F081D4F86002401E000E2073D4F84A
:103770006002401E010C6173B4F86002401E010A31
:10378000A17394F86002401EE073B4F85E02011663
:103790002174B4F85E0201146174B4F85E0201127F
:1037A000A17494F85E12E174082060810020D7E7CC
:1037B0002DE9FC4105460F469046D5F8B842002653
:1037C00005E0002104F10C008155701C86B20C2E1E
:1037D000F7D3D5F8BC0201AA694643683846984732
:1037E00048B13A2302223946284600F069F84FF0E2
:1037F000FF30BDE8FC810821E1730098401E010EF6
:1038000021740098401E010C61740098401E010A4A
:10381000A1740098401EE07402212175BDF80400D7
:1038200001146175BDF804000112A175BDF8040012
:10383000E0750C2060810020DBE770B504460D4682
:10384000D4F8B812002305E0002601F10C00C6549C
:10385000581CC3B2122BF7D3702008730C26CE74F9
:1038600091F85C0291F85D62B04220D091F85C6200
:1038700001F50F7010F836608E7391F85C6200EB02
:10388000C60046790E7691F85C6201F50F7000EB88
:10389000C60006794E7691F85C02401C81F85C0205
:1038A00091F85C02042802D1002081F85C02122009
:1038B00048811079122801D810794881002070BD04
:1038C000F0B50446D4F8B80290F85D6200F50F75C3
:1038D00005F836201D02EEB290F85D7200F50F7506
:1038E00005EBC7052E7190F85D526D1C80F85D5296
:1038F00090F85D52042D02D1002580F85D52F0BD94
:1039000010B503460C46D3F8B8120020488110BD0C
:103910002DE9F04105460E461746D5F8B8424FF45A
:103920000570005958B140F21920015D202305228D
:103930002846FFF7C5FF4FF0FF30BDE8F081D5F80E
:10394000BC0281683046884748B13A23022231469A
:103950002846FFF7B5FF05202072801FEDE7002005
:10396000608100BFE9E72DE9F04105460F461646A4
:10397000D5F8B842707800F00200022809D124235B
:10398000052239462846FFF79BFF4FF0FF30BDE880
:10399000F0813946284604F519720CCAFFF7ADFCD0
:1039A000002802DA4FF0FF30F1E70020608100BF0D
:1039B000EDE72DE9F041064688461546D6F8B842AF
:1039C000207A002877D14FF40670005D00F0800067
:1039D00080280BD140F21920015D202305223046BA
:1039E000FFF76EFF4FF0FF30BDE8F081D6F8BC0264
:1039F00081684046884740B13A230222414630461A
:103A0000FFF75EFF4FF0FF30EEE7D6F8BC02C1686B
:103A10004046884740B12723022241463046FFF7FF
:103A20004FFF4FF0FF30DFE7A8780006E97840EA63
:103A30000140297940EA012069790843C4F8640209
:103A4000287AE97940EA0120C4F868024146304604
:103A500004F519720CCAFFF750FC002802DA4FF087
:103A6000FF30C1E7B4F85E12D4F8680200FB01F73A
:103A70004FF405700059B8420AD040F21920015D98
:103A8000202305223046FFF71BFF4FF0FF30ABE746
:103A9000B7F5007F01D2384601E04FF400700746C9
:103AA00001202072BBB204F10C020121304600F06B
:103AB000B5FF05E0FFE741463046FFF764FD93E7B9
:103AC000002091E701B582B04FF47A70012301AA7A
:103AD00002A900900248FEF7A9F99DF804000EBD66
:103AE000C0010020F8B504460D4616462B460022BC
:103AF00080212046009600F009F828B1606D40F062
:103B0000200060650320F8BD0020FCE72DE9F041AE
:103B100004460E4617461D46DDF818803EE0681C38
:103B2000D8B3FCF769FEA0EB0800A84200D2A5BB01
:103B30002068406820F0E000216848606068B0F5C7
:103B4000827F0DD1A068B0F5004F03D0A068B0F51A
:103B5000806F05D12068006820F04000216808606F
:103B6000A06AB0F5005F0DD100BF2068006820F4A6
:103B70000050216808602068006840F40050216807
:103B8000086000BF012084F8510000BF002084F8C5
:103B9000500000BF0320BDE8F081FFE72068806887
:103BA0003040B04201D1012000E00020B842B6D13F
:103BB0000020F0E703464FF480300860C011108009
:103BC00000207047002070470146002070470146E2
:103BD0000020704701460020704710B504460020C1
:103BE00010BD10B50446002010BD704710B5FCF79D
:103BF00009FE10BD00B595B028210BA8FCF7CDFA41
:103C0000142106A8FCF7C9FA18216846FCF7C5FA82
:103C100009200B904FF480300C9000200D90012073
:103C20000F90119002201290C1031391C1041491BE
:103C30000BA8FDF7B1FC08B1FCF7FAFA0F200690CB
:103C400002200790002008904FF480600990002027
:103C50000A90012106A8FDF769FB08B1FCF7E8FA14
:103C6000112000904FF400700190400305906846C9
:103C7000FDF7C4FA08B1FCF7DBFA15B000BD00008F
:103C80001148006840F001000F490860084640688C
:103C90000E4908400C494860084600680C49084035
:103CA000094908600846006820F48020086008463A
:103CB000406820F4FE0048604FF41F008860C8038D
:103CC0000449086070470000001002400000FFF83F
:103CD000FFFFF6FE08ED00E010B50248FEF7D5FA4A
:103CE00010BD00001802002010B50268204B984259
:103CF0000ED0204B98420BD0B0F1804F08D01E4B15
:103D0000984205D01D4B984202D01D4B984203D1DA
:103D100022F070024B681A43154B98420ED0154B97
:103D200098420BD0B0F1804F08D0134B984205D089
:103D3000124B984202D0124B984203D122F44072A7
:103D4000CB681A4322F080034C6943EA0402026004
:103D50008B68C3620B688362054B984202D0054BA7
:103D6000984201D10B6903630123436110BD000038
:103D7000002C0140003401400004004000080040D5
:103D8000000C004030B50C46816821F47F4142EAC6
:103D9000032525432943816030BD0A46816821F00F
:103DA000700142F0070319438160704730B50B463C
:103DB0001446026A056A25F001050562816921F051
:103DC000F00141EA041122F00A021A438161026201
:103DD00030BD30B50B461446056A25F01005056266
:103DE0008169026A21F4704141EA043122F0A002A3
:103DF00042EA03128161026230BD70B505466C6A09
:103E00000020E085E0842046FEF70EFB70BD0168CF
:103E1000C96821F490710268D1600168496921F094
:103E2000010102685161202180F83A10704710B5F5
:103E300004462068C06820F040002168C860202047
:103E400084F839002046FEF789FC002010BD70B5CB
:103E5000044694F83A0022284AD1A068B0F5805F61
:103E600013D1A56A206940B920684068C0F30800F2
:103E70002880A06A801CA06219E020684068C0B257
:103E80002880A06A401CA06211E0206938B920682F
:103E90004068C1B2A26A501CA062117007E020689D
:103EA000406800F07F01A26A501CA0621170E08D92
:103EB000401E80B2E085C8B92068C06820F02000AC
:103EC0002168C8602068C06820F480702168C860DC
:103ED0002068406920F0010021684861202084F8B2
:103EE0003A002046FEF7CEFB002070BD0020FCE724
:103EF0000220FAE770B504462168096921F44051AF
:103F0000E2681143226811612269A1681143626964
:103F100041EA02052168C96841F20C6291432943D4
:103F20002268D1602168496921F44071A269114376
:103F300022685161564A2168914254D1FDF7D2FA64
:103F400000EBC00101EB001162689200B1FBF2F1DD
:103F500000EBC00202EB001263689B00B2FBF3F2BD
:103F60006423B2FBF3F202EBC20303EB0212A1EBF8
:103F70008201322202EB01116422B1FBF2F101F065
:103F8000F00100EBC00202EB001263689B00B2FB81
:103F9000F3F26423B2FBF3F201EB021200EBC00177
:103FA00001EB001163689B00B1FBF3F100EBC00370
:103FB00003EB00136668B600B3FBF6F36426B3FBAD
:103FC000F6F303EBC30606EB0313A1EB83013223E5
:103FD00003EB01116423B1FBF3F101F00F01114474
:103FE0002268916053E0FDF76DFA00EBC00101EB30
:103FF000001162689200B1FBF2F100EBC00202EB2B
:10400000001263689B00B2FBF3F26423B2FBF3F28D
:1040100002EBC20303EB0212A1EB8201322202EB9C
:1040200001116422B1FBF2F101F0F00100EBC002DA
:1040300002EB001263689B00B2FBF3F26423B2FB55
:10404000F3F201EB021200EBC00101EB0011636817
:104050009B00B1FBF3F100EBC00303EB00136668B8
:10406000B600B3FBF6F36426B3FBF6F303EBC3062B
:1040700006EB0313A1EB8301322303EB011164234D
:10408000B1FBF3F101F00F0111442268916070BDA2
:1040900000380140014691F8390021282CD1886868
:1040A000B0F5805F0FD10A6A1088C0F308000B6872
:1040B0005860086918B9086A801C086209E0086A33
:1040C000401C086205E00B6A581C086218780B68EF
:1040D0005860C88C401E80B2C88458B90868C0684F
:1040E00020F080000B68D8600868C06840F040008D
:1040F0000B68D860002070470220FCE72DE9F041F2
:1041000004460D4617469846069E21E0701CF8B1FD
:104110002EB1FCF771FBA0EB0800B04218D9206863
:10412000C06820F4D0702168C8602068406920F021
:10413000010021684861202084F8390084F83A00A1
:1041400000BF002084F8380000BF0320BDE8F081E4
:10415000206800682840A84201D1012000E000202A
:10416000B842D3D00020F1E710B50248FEF75EF95F
:1041700010BD00009802002070B504460D46D4F82A
:10418000B4022946426820469047002070BD70B5B1
:1041900004460D4694F89C02012804D0022803D05E
:1041A00003280CD101E000BF00BF6888012805D1B9
:1041B0000020C4F8A402204600F04AF804E0294692
:1041C000204600F01BF800BF00BF70BD70B506466A
:1041D0000C4615462B4622460021304600F01EFCB8
:1041E000002070BD70B506460C4615462B4622468B
:1041F0000021304600F0EEFC002070BD70B5044692
:104200000D468021204600F0B9FC0021204600F038
:10421000B5FC70BD10B504460520C4F89402002317
:104220001A461946204600F0F9FB002010BD70B573
:1042300004460E4615460220C4F89402E561256244
:104240002B4632460021204600F0C4FC002070BD01
:1042500010B504460420C4F8940200231A461946F7
:10426000204600F0B7FC002010BD000070B50546E8
:104270000C462DB92246064906A000F0DBF904E001
:104280002246034903A000F0D5F9014870BD0000A3
:10429000780A00204D534320436F6E666967000023
:1042A00002461220088001487047000044000020A8
:1042B00070B505460C462DB92246064906A000F009
:1042C000B9F904E02246034903A000F0B3F901481C
:1042D00070BD0000780A00204D534320496E74657C
:1042E0007266616365000000024604200880014890
:1042F000704700005800002070B505460C46224665
:10430000024903A000F096F9004870BD780A002029
:1043100053544D6963726F656C656374726F6E6937
:104320006373000070B505460C462DB92246064958
:1043300006A000F07FF904E02246034903A000F044
:1043400079F9014870BD0000780A002053544D33BC
:10435000322046313033204D6173732053746F72B5
:104360006167650070B505460C461A202080FBF792
:1043700093FF014870BD00005C00002070B504464A
:104380000D46E888012804D029462046FFF736FF6D
:104390001EE094F89C02012804D0022803D00328D0
:1043A00010D109E000BF0020A060012204F1080143
:1043B0002046FFF73CFF0AE00122211D2046FFF7BF
:1043C00036FF04E029462046FFF718FF00BF00BF74
:1043D00070BDF8B504460E46002000900027002569
:1043E00070880012082875D2DFE800F0C7040C209E
:1043F000C7C7A5B5207CD4F8B0120A6869469047B3
:104400000746C1E0207C40B9D4F8B402816A68460E
:10441000884707460220787007E0D4F8B402C16AE2
:1044200068468847074602207870ADE0B0780628D5
:1044300078D2DFE800F00316293C5063D4F8B002CC
:10444000406838B1207CD4F8B0124A686946904779
:10445000074605E031462046FFF7D0FE681CC5B28E
:1044600067E0D4F8B002806838B1207CD4F8B0128C
:104470008A6869469047074605E031462046FFF7BF
:10448000BDFE681CC5B254E0D4F8B002C06838B1B3
:10449000207CD4F8B012CA6869469047074605E008
:1044A00031462046FFF7AAFE681CC5B241E0D4F8A9
:1044B000B002006938B1207CD4F8B0120A696946AC
:1044C0009047074605E031462046FFF797FE681CF7
:1044D000C5B22EE051E0D4F8B002406938B1207C7A
:1044E000D4F8B0124A6969469047074605E031465C
:1044F0002046FFF783FE681CC5B21AE0D4F8B0026C
:10450000806940B1207CD4F8B0128A69694690472E
:10451000074606E006E031462046FFF76FFE681CBE
:10452000C5B206E031462046FFF768FE681CC5B2FA
:1045300000BF00BF28E0207C30B9D4F8B402416B42
:1045400068468847074605E031462046FFF756FE95
:10455000681CC5B218E0207C40B9D4F8B402016BE5
:104560006846884707460720787005E031462046B0
:10457000FFF744FE681CC5B206E031462046FFF74F
:104580003DFE681CC5B200BF00BF05B1F8BDBDF857
:10459000000088B1F08878B1F088BDF8001088423A
:1045A00002DDBDF8000000E0F0880090BDF80020BA
:1045B00039462046FFF73BFEF08810B92046FFF74A
:1045C00047FE00BFE2E70146002002E0421CD0B2F5
:1045D000491C0A78002AF9D1704770B504460D4687
:1045E00094F89C02012804D0022803D003281AD191
:1045F00001E000BF00BFE888022804D02946204619
:10460000FFF7FCFD14E00120E060D4F8A40218B12B
:10461000E06840F00200E060022204F10C01204654
:10462000FFF705FE04E029462046FFF7E7FD00BF3F
:1046300000BF70BD2DE9F04104460D461746002627
:10464000FCB12046FFF7BFFF022101EB400038809C
:104650003A783046711CCEB22A5403223046711C7F
:10466000CEB22A540AE014F8012B3046711CCEB2A7
:104670002A5400223046711CCEB22A5420780028D9
:10468000F1D1BDE8F0810146002031B1012906D009
:10469000022906D0032908D105E0002007E0022006
:1046A00005E0012003E0022001E0022000BF00BF7E
:1046B0007047000070B504460D46164654B90EA06A
:1046C00002F0F0F80EA002F0EDF813A002F0EAF804
:1046D000022070BDD4F8B40210B10020C4F8B402B6
:1046E0000DB1C4F8B052012084F89C022670204617
:1046F00000F02AF90020ECE74552524F523A2000D0
:10470000496E76616C6964204465766963652068EA
:10471000616E646C650000000A0000002DE9F04144
:1047200004460D46002600272946D4F8C002FCF7AF
:10473000A7F906463046FFF7A6FF07463846BDE80C
:10474000F0812DE9F04104460D4600260027294658
:10475000D4F8C002FCF763F906463046FFF793FF32
:1047600007463846BDE8F0812DE9F04104460E4683
:104770001746002E64D104F11405D4F894020228DF
:1047800048D1D5E90301884210D9D5E90301401A7F
:10479000E860A88982B239462046FFF723FD00234E
:1047A0001A461946204600F039F93EE02969A86802
:1047B000B0FBF1F201FB1200B8B92969A868884280
:1047C00013D3A868D4F8981288420ED2002211465A
:1047D0002046FFF707FD0020C4F8980200231A4680
:1047E0001946204600F01AF91FE0D4F8B402C06858
:1047F00040B194F89C02032804D1D4F8B402C168F3
:10480000204688478021204600F0B8F92046FFF76F
:1048100001FD0AE0D4F89402042802D0D4F89402EE
:1048200018B98021204600F0A9F994F8A0020128C7
:1048300018D1204600F094FB002084F8A00211E07B
:10484000D4F8B402406950B194F89C02032806D110
:10485000D4F8B402314642692046904702E0022073
:10486000BDE8F0810020FBE72DE9F04104460E464B
:104870001746BEBB04F5AA75D4F89402032825D1C7
:10488000D5E90301884210D9D5E90301401AE8604F
:10489000D5E90301884201D2E86800E0286982B2C4
:1048A00039462046FFF792FC2FE0D4F8B4020069A5
:1048B00040B194F89C02032804D1D4F8B4020169F1
:1048C000204688472046FFF7C3FC1EE0D4F8940238
:1048D00005281AD10020C4F894020021204600F0D7
:1048E0004DF912E0FFE7D4F8B402806950B194F8B2
:1048F0009C02032806D1D4F8B402314682692046CE
:10490000904702E00220BDE8F0810020FBE72DE99E
:10491000F04104460D46002600272946D4F8C0027F
:10492000FCF7E8F806463046FFF7ADFE0746384686
:10493000BDE8F08170B504460D462946D4F8C002A2
:10494000FCF7FAF870BD000010B504461948C0F82D
:104950006842C4F8C0021848164908600820486038
:1049600002211448816000218161C1610162FCF76C
:1049700077FA08B1FBF75CFC182300221146D4F843
:10498000C002FCF711F8582300228021D4F8C0029D
:10499000FCF70AF8982300228121D4F8C002FCF722
:1049A00003F8D82300220121D4F8C002FBF7FCFF52
:1049B000002010BD9C050020005C004010B50246A0
:1049C000D2F8C03201F08000802807D101F07F04C6
:1049D00003F1280000EB4410807810BD01F07F0443
:1049E00003F5947000EB44108078F6E72DE9F0476A
:1049F00004460F4615461E464FF00008C1462B469A
:104A000032463946D4F8C002FCF79FF8804640464B
:104A1000FFF739FE81464846BDE8F0872DE9F047AB
:104A200004460D4616461F464FF00008C1463B4659
:104A300032462946D4F8C002FCF7C9F88046404601
:104A4000FFF721FE81464846BDE8F08710B50446D1
:104A50004023002211462046FFF7C8FF01214FF4F2
:104A6000AC70015140214FF4B2700151402300223B
:104A700080212046FFF7BAFF0121A1614021616238
:104A8000012084F89C020020C4F894026060C4F8FD
:104A9000A402D4F8B80228B12179D4F8B40242684B
:104AA00020469047002010BD014691F89C02042842
:104AB00003D191F89D0281F89C020020704710B547
:104AC000044694F89C02032808D1D4F8B402C069C3
:104AD00020B1D4F8B402C16920468847002010BD37
:104AE00002461174002070472DE9F04104460D463E
:104AF000002600272946D4F8C002FCF78BFA0646A8
:104B00003046FFF7C0FD07463846BDE8F08170B576
:104B100004460D46294604F52A7000F0E6F9012006
:104B2000C4F8940240F2AE20005BC4F8980294F8F6
:104B3000A80200F01F0020B1012808D0022812D1DD
:104B40000BE004F52A71204600F0D3FA13E004F5D7
:104B50002A71204600F03AFC0DE004F52A71204647
:104B600000F018FB07E094F8A80200F0800120464E
:104B700000F004F800BF00BF002070BD2DE9F04137
:104B800004460D46002600272946D4F8C002FCF74B
:104B900042F806463046FFF776FD07463846BDE840
:104BA000F08170B5044600250026D4F8C002FCF759
:104BB00055FA05462846FFF766FD0646304670BDA5
:104BC000014691F89C0281F89D02042081F89C0224
:104BD000002070472DE9F04704460D4616461F4653
:104BE0004FF00008C1463B4632462946D4F8C00281
:104BF000FCF751F880464046FFF745FD81464846A0
:104C0000BDE8F08770B504460D4629462046FDF7FD
:104C100075FE002070BD70B504460D46294620463D
:104C2000FDF791FE002070BD70B504460D460121D0
:104C30002046FFF786FD0021C4F86C118121204633
:104C4000FFF77FFD0021E1622046FDF79CFED4F8CE
:104C5000B80230B1D4F8B80200F0F7FB0020C4F875
:104C6000B802002070BD000001460A2008800148FB
:104C7000704700004C0100200146202008800148B8
:104C8000704700000C0100200146202008800148E8
:104C900070470000EC0000200146202008800148F9
:104CA000704700002C01002070B504460D46207CA2
:104CB00090B94FF40073022201212046FFF796FEBF
:104CC0000121C4F86C114B02022281212046FFF71A
:104CD0008DFE0121E16210E04023022201212046E5
:104CE000FFF784FE0121C4F86C11402302228121C8
:104CF0002046FFF77BFE0121E1624FF41B7000F0BC
:104D0000A5FBC4F8B802D4F8B80208B9022070BDF7
:104D10002046FDF73DFE0020F9E7024609B1C2F842
:104D2000BC1200207047F8B505460C46D5F8B862AD
:104D3000002700200090207800F0600000283DD07F
:104D4000202871D16078FE2802D0FF282ED11AE0E9
:104D5000608890B9E08801280FD1207800F08000A9
:104D600080280AD1D5F8BC128869804730600122BA
:104D700031462846FFF75BFA04E021462846FFF754
:104D80003DFA022718E0608850B9E08840B92078E1
:104D900000F08000802803D02846FDF719FE04E0CB
:104DA00021462846FFF72AFA022705E02146284631
:104DB000FFF724FA022700BF00BF93E0607830B10C
:104DC000012832D00A2812D00B287DD11FE095F897
:104DD0009C02032805D1022269462846FFF727FADC
:104DE00004E021462846FFF709FA022772E095F809
:104DF0009C02032805D10122311D2846FFF717FA2E
:104E000004E021462846FFF7F9F9022762E095F809
:104E10009C02032802D1A078706004E02146284655
:104E2000FFF7ECF9022755E056E021792846FFF715
:104E30006EFD21792846FFF784FC207900F0800080
:104E400080281DD10021207900F00F0000EB8002A6
:104E500005F1140000EB82004160287C38B94FF462
:104E60000073022281212846FFF7C0FD05E04023A0
:104E7000022281212846FFF7B9FD0121E9621DE0E8
:104E80000021207900F00F0000EB800205F5AA70E8
:104E900000EB82004160287C38B94FF40073022295
:104EA00001212846FFF7A2FD05E04023022201214F
:104EB0002846FFF79BFD0121C5F86C112179284692
:104EC000FDF7FEFC06E0FFE721462846FFF796F9CE
:104ED000022700BF00BF05E021462846FFF78EF9F4
:104EE000022700BF00BF3846F8BD0A7802704A7832
:104EF00042708B78CA7803EB022242800B794A79A0
:104F000003EB022282808B79CA7903EB0222C280F2
:104F10007047000070B505460C46002614B1C5F870
:104F2000B44209E005A001F0BDFC06A001F0BAFC06
:104F30000AA001F0B7FC0226304670BD4552524F20
:104F4000523A2000496E76616C696420436C61734B
:104F5000732068616E646C65000000000A00000048
:104F600001460020704770B504460D46A88810BB66
:104F7000E88800BB688880281DD2A87800F07F06EA
:104F800094F89C02032804D129462046FFF736F9FD
:104F900015E084F89E6231462046FFF7A5FD2046C5
:104FA000FFF756F91EB1022084F89C0207E00120A9
:104FB00084F89C0203E029462046FFF71FF970BDE4
:104FC00070B504460D460226D4F8B40238B1D4F8C0
:104FD000B402294602682046904700B900263046B0
:104FE00070BD000070B504460D46A87836490870BB
:104FF00008460078012804DD29462046FFF7FEF820
:1050000060E094F89C02022802D003284FD11CE0F3
:105010002D480078A8B12C4800786060032084F8FF
:105020009C02294801782046FFF7CAFF022804D1D4
:1050300029462046FFF7E2F870BD2046FFF708F941
:1050400002E02046FFF704F93BE01F48007870B902
:10505000022084F89C021C48007860601A4801789D
:105060002046FFF789F82046FFF7F2F81EE01649C0
:1050700009786068884216D021792046FFF77CF8CD
:10508000114800786060104801782046FFF798FFCB
:10509000022804D129462046FFF7B0F8CCE7204685
:1050A000FFF7D6F802E02046FFF7D2F809E02946DC
:1050B0002046FFF7A3F8044801782046FFF75CF884
:1050C00000BF00BF00BFB7E7B200002070B50546C3
:1050D0000C466088012804D1C5F8A4022846FFF7D1
:1050E000B7F870BD10B504462046FFF75AFD002002
:1050F00010BD70B505460C460026207800F0600013
:1051000060B1202802D040283CD100E000BFD5F893
:10511000B402214682682846904738E060780A2821
:1051200029D2DFE800F01923281E280A0528140FC9
:1051300021462846FFF74DF922E021462846FFF791
:1051400012FF1DE021462846FFF74CFF18E02146DC
:105150002846FFF713F913E021462846FFF73DFAEA
:105160000EE021462846FFF7B1FF09E02146284618
:10517000FFF70DF804E021462846FFF73FF800BF8F
:1051800000BF04E021462846FFF738F800BF00BF03
:10519000304670BD2DE9F04105460E464FF000083F
:1051A0003479307800F0600060B1202802D04028C7
:1051B00071D100E000BFD5F8B402314682682846BC
:1051C000904700E1307800F06000202809D1D5F840
:1051D000B402314682682846904780464046BDE882
:1051E000F081707800285ED001282FD0032876D176
:1051F00095F89C02022802D0032820D110E054B177
:10520000802C08D021462846FFF7B8FC802128468C
:10521000FFF7B4FC03E031462846FEF7EFFF13E04A
:10522000708840B93CB1802C05D0F08818B921466F
:105230002846FFF7A3FC2846FFF70AF804E03146AA
:105240002846FEF7DBFF00BF00BFB5E095F89C02E3
:10525000022802D003281FD110E054B1802C08D0BE
:1052600021462846FFF78AFC80212846FFF786FC66
:1052700003E031462846FEF7C1FF12E0708848B9C6
:1052800004F07F0018B121462846FFF747FA284668
:10529000FEF7DEFF05E091E031462846FEF7AEFF5F
:1052A00000BF00BF88E095F89C02022802D00328C6
:1052B00076D126E034B1802C04D031462846FEF762
:1052C0009DFF72E004F08000802809D104F07F0087
:1052D00000EB800105F1140000EB810008E066E0BE
:1052E00004F07F0000EB800105F5AA7000EB81005F
:1052F000074600203860022239462846FEF797FF0D
:1053000053E004F0800080280ED104F00F0000EB81
:10531000800105F1140000EB8100406898B9314626
:105320002846FEF76BFF40E004F00F0000EB800121
:1053300005F5AA7000EB8100406820B93146284687
:10534000FEF75CFF31E004F08000802808D104F013
:105350007F0000EB800105F1140000EB810007E005
:1053600004F07F0000EB800105F5AA7000EB8100DE
:1053700007460CB1802C02D10020386009E021469C
:105380002846FFF71BFB10B10120386001E0002028
:105390003860022239462846FEF749FF05E0FFE75C
:1053A00031462846FEF72AFF00BF00BF04E0314621
:1053B0002846FEF723FF00BF00BF04E03146284621
:1053C000FEF71CFF00BF00BF404608E770B505466A
:1053D0000C460026207800F0600030B1202802D072
:1053E00040282AD100E000BF00BF95F89C020128A8
:1053F00004D0022803D0032818D101E000BF00BF69
:10540000207901280DDCD5F8B402214682682846AF
:1054100090470646E08840B93EB92846FEF718FF97
:1054200003E021462846FEF7E9FE04E0214628462F
:10543000FEF7E4FE00BF00BF04E021462846FEF769
:10544000DDFE00BF00BF002070BD7047014601486F
:105450007047000008080020F0B5024600260878D2
:10546000400032F8100048F68F1400EA0403C878B0
:1054700030B101280CD0022805D003280BD104E05C
:1054800043F4007309E000BF07E043F4C06304E0A5
:1054900043F4806301E0012600BF00BF43F40040F5
:1054A00040F080000C78640022F8140000BF0C78F3
:1054B000640032F8144048F68F752C400D7844EAA9
:1054C000050040F4004444F080040D786D0022F89B
:1054D000154000BF087B00287ED14878002852D0B4
:1054E00000BF1046B2F8505028440D7800F5806790
:1054F00007EB0514CD886D106D00258000BF00BF3F
:105500000C78640032F8140000F040048CB100BF45
:105510000D786D0032F8155048F68F7705EA0704CC
:1055200044F4004545F0C0050F787F0022F817507D
:1055300000BF00BFC878012813D000BF0C786400FA
:1055400032F8144048F6BF7504EA050080F02000E8
:1055500040F4004444F080040D786D0022F81540BA
:10556000C3E100BF0C78640032F8144048F6BF7500
:1055700004EA050040F4004444F080040D786D0016
:1055800022F81540B1E100BF1046B2F8505028444F
:105590000D78042707EBC50500F5806707EB450488
:1055A000CD886D106D00258000BF00BF1546B2F894
:1055B000504025440C78062707EBC40405F58067A6
:1055C00007EB4404204600BF0F6967B9078848F21B
:1055D000FF3C07EA0C0700E057E00780078847F424
:1055E000004707801EE00F693E2F0DD800BF0F69EE
:1055F0007C080F7C07F0010707B1641C4FF6FF77AA
:1056000007EA842707800DE000BF0F697C090F7C43
:1056100007F01F0707B9641E4FF4004747EA8427C5
:10562000078000BF00BF00BF00BF0C78640032F8E5
:10563000140000F480448CB100BF0D786D0032F886
:10564000155048F68F7705EA070444F4004545F401
:1056500081450F787F0022F8175000BF00BF00BFC0
:105660000C78640032F814404BF68F7504EA05009C
:1056700080F4805080F4005040F4004444F08004F2
:105680000D786D0022F815402FE100BF0C78640002
:1056900032F8144048F68F7504EA050040F40044DF
:1056A00044F4C0740D786D0022F8154000BF00BFAF
:1056B00000BF00BF1046B2F8505028440D7800F5E6
:1056C000806707EB05140D896D106D00258000BF04
:1056D00000BF00BF00BF1046B2F8505028440D78FC
:1056E000042707EBC50500F5806707EB45044D89E6
:1056F0006D106D00258000BF00BF00BF48780028F6
:1057000070D100BF0C78640032F8140000F48044BB
:105710008CB100BF0D786D0032F8155048F68F77C8
:1057200005EA070444F4004545F481450F787F00FD
:1057300022F8175000BF00BF00BF0C78640032F899
:10574000140000F040048CB100BF0D786D0032F8F9
:10575000155048F68F7705EA070444F4004545F0F4
:10576000C0050F787F0022F8175000BF00BF00BFB0
:105770000C78640032F8144048F68F7504EA05008E
:1057800040F4004444F0C0040D786D0022F8154048
:1057900000BF00BF0C78640032F814404BF68F75E0
:1057A00004EA050080F4805080F4005040F4004486
:1057B00044F080040D786D0022F8154000BF00BF52
:1057C0000C78640032F8144048F6BF7504EA05000E
:1057D00040F4004444F080040D786D0022F8154038
:1057E00083E0FFE700BF0C78640032F8140000F497
:1057F00080448CB100BF0D786D0032F8155048F62A
:105800008F7705EA070444F4004545F481450F7895
:105810007F0022F8175000BF00BF00BF0C78640063
:1058200032F8140000F040048CB100BF0D786D0018
:1058300032F8155048F68F7705EA070444F400451E
:1058400045F0C0050F787F0022F8175000BF00BF59
:1058500000BF0C78640032F8144048F68F7504EAF3
:10586000050040F4004444F481440D786D0022F8B2
:10587000154000BFC878012813D000BF0C78640021
:1058800032F8144048F6BF7504EA050080F02000A5
:1058900040F4004444F080040D786D0022F8154077
:1058A00011E000BF0C78640032F8144048F6BF7570
:1058B00004EA050040F4004444F080040D786D00D3
:1058C00022F8154000BF00BF0C78640032F8144085
:1058D0004BF68F7504EA050040F4004444F0800460
:1058E0000D786D0022F8154000BF3046F0BD10B5B0
:1058F0000446002010BD30B50246087B00285BD16D
:10590000487860B300BF0B785B0032F8130000F0FA
:1059100040038BB100BF0C78640032F8144048F6A5
:105920008F7504EA050343F4004444F0C0040D7885
:105930006D0022F8154000BF00BF00BF0B785B0070
:1059400032F8133048F6BF7403EA040040F4004311
:1059500043F080030C78640022F8143007E100BFA4
:105960000B785B0032F8130000F480438BB100BF6A
:105970000C78640032F8144048F68F7504EA050389
:1059800043F4004444F481440D786D0022F815403E
:1059900000BF00BF00BF0B785B0032F813304BF63E
:1059A0008F7403EA040040F4004343F080030C7852
:1059B000640022F81430DAE0487800286BD100BF88
:1059C0000B785B0032F8130000F480438BB100BF0A
:1059D0000C78640032F8144048F68F7504EA050329
:1059E00043F4004444F481440D786D0022F81540DE
:1059F00000BF00BF00BF0B785B0032F8130000F05F
:105A000040038BB100BF0C78640032F8144048F6B4
:105A10008F7504EA050343F4004444F0C0040D7894
:105A20006D0022F8154000BF00BF00BF0B785B007F
:105A300032F8133048F68F7403EA040040F4004350
:105A400043F0C0030C78640022F8143000BF00BF9C
:105A50000B785B0032F813304BF68F7403EA0400C6
:105A600040F4004343F080030C78640022F81430C3
:105A700000BF00BF0B785B0032F8133048F6BF74EC
:105A800003EA040040F4004343F080030C78640010
:105A900022F814306BE000BF0B785B0032F8130083
:105AA00000F480438BB100BF0C78640032F81440DE
:105AB00048F68F7504EA050343F4004444F4814436
:105AC0000D786D0022F8154000BF00BF00BF0B78B5
:105AD0005B0032F8130000F040038BB100BF0C787C
