:020000040800F2
:10000000301E002001010008591B00087D1900085E
:10001000551B00086D010008752200080000000053
:10002000000000000000000000000000851B000828
:10003000DD010008000000005B1B0008871B0008B2
:100040001B0100081B0100081B0100081B01000820
:100050001B0100081B0100081B0100081B01000810
:100060001B0100081B0100081B0100081B01000800
:100070001B0100081B010008710100088101000834
:1000800091010008A10100081B0100081B010008E4
:100090001B0100081B0100081B0100081B010008D0
:1000A0001B0100081B0100081B0100081B010008C0
:1000B0001B0100081B0100081B0100081B010008B0
:1000C0001B0100081B0100081B0100081B010008A0
:1000D0001B0100088D210008F52100081B01000804
:1000E0001B0100081B0100081B010008DFF80CD0F1
:1000F00000F02AF800480047E1230008301E0020E5
:100100000648804706480047FEE7FEE7FEE7FEE7B1
:10011000FEE7FEE7FEE7FEE7FEE7FEE7E11B00087D
:10012000ED000008D2B201E000F8012B491EFBD21D
:1001300070470022F6E710B513460A4604461946F2
:10014000FFF7F0FF204610BD064C074D06E0E068C3
:1001500040F0010394E8070098471034AC42F6D30E
:10016000FFF7C8FF9C240008BC24000800BFFEE77E
:1001700010B5024800F08CF810BD00006019002096
:1001800010B5024800F084F810BD00001C190020D2
:1001900010B5024800F07CF810BD0000A419002042
:1001A00010B5024800F074F810BD0000E8190020F6
:1001B00030B590F840500124AC40C56B6C600468C9
:1001C00063604468102C04D10468A2600468E16094
:1001D00003E00468A1600468E26030BD70477047C6
:1001E00070B50446002594F82100022803D00420AD
:1001F000A063012548E02068006820F00E00216817
:1002000008602068006820F00100216808601F492C
:100210002068884201D1012026E01C491431206861
:10022000884201D110201FE01849283120688842F7
:1002300001D1801518E015493C312068884201D170
:10024000801411E0114950312068884202D14FF4E6
:10025000803009E00D4964312068884202D14FF4B2
:10026000801001E04FF08070084908394860012093
:1002700084F8210000BF002084F8200000BF606BDC
:1002800010B12046616B8847284670BD08000240C7
:1002900070B50446E06B05682068066894F8401065
:1002A000042088402840002846D006F0040000289A
:1002B00042D02068006800F0200028B9206800685B
:1002C00020F004002168086057492068884201D165
:1002D000042027E0544914312068884201D140208D
:1002E00020E0514928312068884201D1001519E0E9
:1002F0004D493C312068884202D14FF4804011E0E2
:10030000494950312068884202D14FF4802009E0E9
:10031000454964312068884202D14FF4800001E0F1
:100320004FF08060404908394860E06A00287AD080
:100330002046E16A884776E094F840100220884021
:100340002840A0B306F0020088B32068006800F0DF
:10035000200040B92068006820F00A002168086089
:10036000012084F8210030492068884201D1022010
:1003700028E02D4914312068884201D1202021E055
:10038000294928312068884201D140151AE02649C0
:100390003C312068884202D14FF4005012E02249DB
:1003A00050312068884203D14FF400300AE017E052
:1003B0001D4964312068884202D14FF4001001E0E9
:1003C0004FF0007018490839486000BF002084F8D9
:1003D000200000BFA06A30B32046A16A884722E00F
:1003E00094F84010082088402840E0B106F008004A
:1003F000C8B12068006820F00E002168086094F8F9
:10040000401001208840E16B48600120A06384F81F
:10041000210000BF002084F8200000BF206B10B135
:100420002046216B884770BD08000240014600222B
:1004300009B901207047164B0868C01A1423B0FB95
:10044000F3F08000086412480838C863022081F87D
:1004500021000868026843F6F0708243D1E9010385
:100460001843CB6818430B6918434B6918438B69D1
:100470001843CB6918430243086802600020886370
:10048000012081F82100002081F8200000BFD1E781
:10049000080002402DE9F04104460D4616461F466D
:1004A0004FF0000800BF94F82000012802D102207C
:1004B000BDE8F081012084F8200000BF94F82100FD
:1004C00001282CD1022084F821000020A06320689C
:1004D000006820F00100216808603B46324629464A
:1004E0002046FFF765FEE06A30B12068006840F002
:1004F0000E00216808600BE02068006820F004000E
:10050000216808602068006840F00A0021680860DF
:100510002068006840F001002168086006E000BF24
:10052000002084F8200000BF4FF002084046BFE7DB
:1005300070B5044600F0A0F906462546681C10B1C7
:1005400004480078054400BF00F096F9801BA842DB
:10055000FAD370BD140000202DE9F84703460022AD
:1005600094466EE14FF0010808FA02F4D1F80080D9
:1005700008EA0400A0427DD1DFF8DCA2D1F80480B3
:10058000A8EB0A09D0453AD014DCB8F1030F50D0DB
:1005900009DCB8F1000F31D0B8F1010F1CD0B8F16F
:1005A000020F49D120E0B8F1110F18D0B8F1120FA5
:1005B00042D11EE0B9F5881F25D006DCB9F5803F91
:1005C00020D0B9F5801F37D11AE0B9F5001F18D037
:1005D000B9F5041F30D117E0D1F80CC02DE0D1F8E7
:1005E0000C8008F1040C28E0D1F80C8008F1080C0C
:1005F00023E0D1F80C8008F10C0C1EE000BF00BF16
:1006000000BF00BF00BF00BFD1F80880B8F1000FE5
:1006100002D14FF0040C0BE0D1F80880B8F1010FC3
:1006200003D14FF0080C1C6102E04FF0080C5C6134
:1006300003E04FF0000C00E000BF00BFFF2801D82E
:10064000984601E003F104084646FF2802D84FEA25
:10065000820803E0A2F108084FEA88084746D6F866
:1006600000804FF00F0909FA07F928EA09080CFA87
:1006700007F900E088E048EA0908C6F80080D1F8E8
:10068000048008F08058B8F1805F7DD100BFDFF8AA
:10069000CC81D8F8188048F00108DFF8C091C9F87B
:1006A0001880C846D8F8188008F00108CDF80080F6
:1006B00000BF00BF4FEAB9384FEA920958F82950F5
:1006C0004FEA82784FEA18794FF00F0808FA09F8D4
:1006D00025EA0805DFF88881434502D14FF000087C
:1006E00016E0DFF88081434502D14FF001080FE0AA
:1006F000DFF87481434502D14FF0020808E0DFF8CB
:100700006C81434502D14FF0030801E04FF004082B
:100710004FEA82794FEA197908FA09F848EA05059B
:10072000DFF84C814FEA920948F82950D1F804804B
:1007300008F48038B8F5803F0AD1DFF83881D8F85E
:10074000008048EA0008DFF82C91C9F8008009E031
:10075000DFF82081D8F8008028EA0008DFF814913B
:10076000C9F80080D1F8048008F40038B8F5003FDB
:1007700010D1DFF8008108F10408D8F8008048EAB9
:100780000008DFF8F09000E05AE009F10409C9F828
:1007900000800DE0DFF8DC8008F10408D8F8008064
:1007A00028EA0008DFF8CC9009F10409C9F80080B4
:1007B000D1F8048008F48018B8F5801F0ED1DFF856
:1007C000B48008F10808D8F8008048EA0008DFF88B
:1007D000A49009F10809C9F800800DE0DFF89480C1
:1007E00008F10808D8F8008028EA0008DFF88490AB
:1007F00009F10809C9F80080D1F8048008F400184C
:10080000B8F5001F0ED1DFF86C8008F10C08D8F89D
:10081000008048EA0008DFF85C9009F10C09C9F88B
:1008200000800DE0DFF84C8008F10C08D8F800805B
:1008300028EA0008DFF83C9009F10C09C9F80080AB
:10084000521CD1F8008028FA02F8B8F1000F7FF4AA
:1008500089AEBDE8F88700000000111000100240CA
:1008600000080140000C014000100140001401404C
:100870000800014000040140014800687047000082
:100880000C00002003480068034909780844014926
:10089000086070470C0000201400002010B50848C4
:1008A000006840F0100006490860032000F0A8F836
:1008B000002000F007F800F02BF8002010BD000029
:1008C0000020024070B504460E4800784FF47A715B
:1008D000B1FBF0F00C490968B1FBF0F5284600F0D7
:1008E0000BFC08B1012070BD102C07D2002221465C
:1008F000501E00F047F80548046001E00120F2E7CF
:100900000020F0E714000020180000201000002054
:1009100008B500BF1148806940F001000F498861A7
:100920000846806900F00100009000BF00BF00BFD2
:100930000846C06940F08050C8610846C06900F0B0
:100940008050009000BF00BF00BF0549486820F0FC
:10095000E06040F08060486000BF08BD00100240C9
:100960000000014001460846002809DB00F01F0393
:1009700001229A4043099B0003F1E023C3F80021C0
:1009800000BF70472DE9F05F80460D4616460027F0
:1009900001F082FC074639462A46334601F007003B
:1009A000C0F1070ABAF1040F02D94FF0040A01E0BE
:1009B000C0F1070AD14600F1040ABAF1070F02D2CA
:1009C0004FF0000A01E0A0F1030AD4464FF0010AFB
:1009D0000AFA09FAAAF1010A0AEA020A0AFA0CFA60
:1009E0004FF0010B0BFA0CFBABF1010B0BEA030B05
:1009F0004AEA0B042146404601F056FCBDE8F09F50
:100A000000BF00F00702064B19684FF6FF031940BC
:100A1000044B0B4343EA0221014B196000BF7047AE
:100A20000CED00E00000FA0570B504460D460CB967
:100A3000012070BD5A48006800F00700A8420ED29D
:100A40005748006820F007002843554908600846C9
:100A5000006800F00700A84201D00120E9E72078F3
:100A600000F0020002281DD1207800F004000428C4
:100A700005D14C48406840F4E0604A49486020781D
:100A800000F00800082805D14648406840F460504E
:100A9000444948604348406820F0F000A16808439A
:100AA00040494860207800F0010078B36068012870
:100AB00006D13C48006800F4003090B90120B8E746
:100AC0006068022806D13748006800F0007040B91D
:100AD0000120AEE73348006800F0020008B90120A9
:100AE000A7E73048406820F00300616808432D49BB
:100AF0004860FFF7C1FE064609E0FFF7BDFE801B18
:100B000041F28831884202D9032092E707E0254864
:100B1000406800F00C006168B0EB810FEDD1204817
:100B2000006800F00700A8420ED91D48006820F0B8
:100B3000070028431A4908600846006800F00700CB
:100B4000A84201D0012074E7207800F004000428B6
:100B500007D11448406820F4E060E1680843114977
:100B60004860207800F00800082808D10D48406847
:100B700020F46050216940EAC1000A49486000F051
:100B80003FF808494968C1F30311074A515CC8405E
:100B90000649086006480068FFF794FE002048E711
:100BA00000200240001002408424000818000020A9
:100BB0001000002001480068704700001800002065
:100BC00000B5FFF7F7FF04494968C1F30221034A62
:100BD000515CC84000BD0000001002409424000891
:100BE00000B5FFF7E7FF04494968C1F3C221034A92
:100BF000515CC84000BD0000001002409424000871
:100C0000F0B585B00FF26C0C9CE8E01001A8A0E8EC
:100C1000E0101CA52D68009500210022002300246F
:100C20000020194D696801F00C05F5B1042D02D0C2
:100C3000082D19D101E0154819E001ADC1F3834633
:100C4000AC5D01F4803555B10F4D6D68C5F340457D
:100C50001DF805200D4D6543B5FBF2F302E00C4D88
:100C600004FB05F3184602E000BF084800BF00BFC0
:100C700005B0F0BD02030405060708090A0B0C0DB8
:100C80000E0F1010010200000010024000127A0046
:100C900000093D00F8B504460CB90120F8BD2078E4
:100CA00000F00100002878D0F848406800F00C00FF
:100CB00004280CD0F548406800F00C00082811D139
:100CC000F248406800F48030B0F5803F0AD1EF4828
:100CD000006800F4003000285FD0606800285CD114
:100CE0000120DBE700BF6068B0F5803F06D1E74830
:100CF000006840F48030E549086028E0606858B931
:100D0000E248006820F48030E04908600846006846
:100D100020F4802008601AE06068B0F5A02F0BD1A5
:100D2000DA48006840F48020D84908600846006826
:100D300040F4803008600AE0D448006820F4803035
:100D4000D24908600846006820F48020086000BF8F
:100D5000606888B1FFF790FD054606E0FFF78CFD5F
:100D6000401B642801D9032098E7C848006800F4B4
:100D700000300028F2D010E0FFF77EFD054606E0C7
:100D8000FFF77AFD401B642801D9032086E7BF489E
:100D9000006800F400300028F2D1207800F0020052
:100DA000022857D1B948406800F00C0050B1B7484C
:100DB000406800F00C00082818D1B448406800F4DE
:100DC000803098B9B148006800F0020020B1206975
:100DD000012801D0012061E7AC48006820F0F8004C
:100DE000616940EAC100A949086033E02069E8B1BF
:100DF0000120A7490860FFF73FFD054606E0FFF721
:100E00003BFD401B022801D9032047E79F480068AB
:100E100000F002000028F2D09C48006820F0F800A2
:100E2000616940EAC1009949086013E000209849CF
:100E30000860FFF721FD054606E0FFF71DFD401B9A
:100E4000022801D9032029E79048006800F0020039
:100E50000028F2D1207800F0080008282DD1A069E0
:100E6000B8B101208B490860FFF706FD054606E092
:100E7000FFF702FD401B022801D903200EE783483B
:100E8000406A00F002000028F2D0012000F066FE67
:100E900013E000207F490860FFF7EEFC054606E0FE
:100EA000FFF7EAFC401B022801D90320F6E6774849
:100EB000406A00F002000028F2D1207800F004001F
:100EC000042873D100277148C06900F0805070B9C0
:100ED00000BF6E48C06940F080506C49C861084648
:100EE000C06900F08050009000BF00BF01276A4831
:100EF000006800F48070B0B96748006840F4807002
:100F000065490860FFF7B8FC054606E0FFF7B4FC4A
:100F1000401B642801D90320C0E65F48006800F444
:100F200080700028F2D000BFE068012806D1574841
:100F3000006A40F001005549086227E0E06858B9AE
:100F40005248006A20F00100504908620846006AD1
:100F500020F00400086219E0E06805280BD14B4836
:100F6000006A40F00400494908620846006A40F0FF
:100F7000010008620AE04548006A20F00100434988
:100F800008620846006A20F00400086200BFE068BA
:100F9000A0B1FFF771FC054609E0FFF76DFC401BAF
:100FA00041F28831884202D9032077E622E03748AF
:100FB000006A00F002000028EFD012E0FFF75CFCAE
:100FC000054608E0FFF758FC401B41F28831884293
:100FD00001D9032062E62D48006A00F002000028D3
:100FE000F0D1012F05D12948C06920F08050274950
:100FF000C86100BFE069C8B32448406800F00C0035
:10100000082860D0E069022848D1002020490866FD
:10101000FFF732FC054606E0FFF72EFC401B0228D6
:1010200001D903203AE61948006800F00070002852
:10103000F2D1206AB0F5803F07D11448406820F40F
:101040000030A168084311494860D4E90801084309
:101050000E49496821F4741108430C494860012085
:101060000B490866FFF708FC054607E03DE0FFF77F
:1010700003FC401B022801D903200FE60348006847
:1010800000F000700028F2D02FE0000000100240B5
:101090000000424280044242007000400020144997
:1010A0000866FFF7E9FB054606E0FFF7E5FB401B96
:1010B000022801D90320F1E50E48006800F0007015
:1010C0000028F2D111E0E069012800D1E6E50948E5
:1010D000466806F48031206A814204D106F470111A
:1010E000606A814201D00120D8E50020D6E50000E9
:1010F000000042420010024070B504462546681EBA
:10110000B0F1807F01D301200FE0681E4FF0E02195
:1011100048610F214FF0FF3001F0C6F800204FF07A
:10112000E021886107200861002070BD10B50246EB
:1011300000BF92F83C00012801D1022010BD01201F
:1011400082F83C0000BF022082F83D00106843682E
:101150001068846823F070030868034324F0800457
:10116000486804431068436010688460012082F876
:101170003D0000BF002082F83C0000BF00BFDDE75B
:1011800010B504460CB9012010BD94F83D0028B9F3
:10119000002084F83C00204600F00CF8022084F87F
:1011A0003D00211D206800F047FD012084F83D002E
:1011B0000020E9E708B5124A016891420DD100BF4D
:1011C0001049896941F400610E4A916111468969AB
:1011D00001F40061009100BF11E00168B1F1804F9E
:1011E0000DD100BF0749C96941F00101054AD1612C
:1011F0001146C96901F00101009100BF00BF08BD9F
:10120000002C01400010024001460868C06840F010
:1012100001000B68D8600868806800F00702062AA1
:1012200005D00868006840F001000B6818600020D5
:1012300070472DE9F04104460D4600BF94F83C008C
:10124000012802D10220BDE8F081012084F83C0091
:1012500000BF022084F83D002068866826F07706EB
:1012600026F47F46206886602868502833D00CDC3E
:10127000202850D004DC00284BD0102851D149E060
:10128000302849D040284CD139E060282DD0702832
:1012900007D0B0F5805F03D0B0F5005F41D10DE01D
:1012A00040E0D5E902136A68206800F0FFFC20687E
:1012B000866846F077062068866033E0D5E9021339
:1012C0006A68206800F0F2FC2068806840F4804082
:1012D0002168886026E0EA686968206800F0FAFC06
:1012E0005021206800F0EDFC1CE0EA686968206885
:1012F00000F003FD6021206800F0E3FC12E0EA68E2
:101300006968206800F0E6FC4021206800F0D9FC04
:1013100008E000BF00BF00BF2968206800F0D1FCD2
:1013200000E000BF00BF012084F83D0000BF0020A6
:1013300084F83C0000BF00BF85E770472DE9F04707
:101340000446206805682068C668206847694FF031
:101350000008C14605F00F08B8F1000F0AD105F0EA
:10136000200038B106F0200020B1204600F081FDB9
:10137000BDE8F087B8F1000F6DD007F0010018B993
:1013800006F49070002866D005F0010030B106F434
:10139000807018B1E06B40F00100E06305F00400DC
:1013A00030B107F0010018B1E06B40F00200E063DB
:1013B00005F0020030B107F0010018B1E06B40F019
:1013C0000400E06305F0080030B107F0010018B137
:1013D000E06B40F00800E063E06B68B305F02000CC
:1013E00028B106F0200010B1204600F042FD206830
:1013F0004069C0F38019E06B00F0080010B9B9F142
:10140000000F22D0204600F00AFD2068406900F05D
:101410004000B0B12068406920F040002168486178
:10142000606B50B11748616B4863606BFEF7D8FE84
:1014300010B1606B416B88470CE02046FFF77DFFE1
:1014400008E02046FFF779FF04E02046FFF775FF2C
:101450000020E0638CE705F0800030B106F08000EA
:1014600018B1204600F028FE82E705F0400030B1B8
:1014700006F0400018B1204600F0E1FC78E700BF1C
:1014800076E70000231D000810B504460CB90120C2
:1014900010BDA06900B100E000BF94F8390028B980
:1014A000002084F83800204600F028F8242084F832
:1014B00039002068C06820F400502168C8602046C8
:1014C00000F02AFD2068006920F49040216808613E
:1014D0002068406920F02A00216848612068C068BF
:1014E00040F400502168C8600020E063202084F8A8
:1014F000390084F83A000020CAE7000010B586B031
:101500000446002002900390049005907F492068D3
:1015100088427DD100BF7E48806940F480407C498C
:1015200088610846806900F48040019000BF00BFD8
:1015300000BF0846806940F0040088610846806961
:1015400000F00400019000BF00BF48150290022087
:1015500003900320059002A96E48FEF7FDFF4FF4AB
:101560008060029000200390049002A96948FEF771
:10157000F3FF694869490860002048600021674816
:1015800081608021C16000210161416181614FF46E
:101590008051C161FEF74AFF08B1FEF720FE00BF8F
:1015A0005E486063446200BF5B4814385C49086071
:1015B0001020486000215A4881608021C1600021CC
:1015C0000161416181614FF48051C161FEF72EFFDD
:1015D00008B1FEF704FE00BF51482063446200BF1B
:1015E000002211462520FFF7CDF92520FFF7BAF993
:1015F0004C480068C06840F010004A490968C8605B
:101600004FF480624849474800F098F87CE0FFE7D3
:1016100046492068884277D100BF3D48C06940F400
:1016200000303B49C8610846C06900F400300190B1
:1016300000BF00BF00BF0846806940F00400886119
:101640000846806900F00400019000BF00BF04203C
:101650000290022003900320059002A92D48FEF776
:101660007BFF0820029000200390049002A92948E3
:10167000FEF772FF284814302D49086000204860AA
:1016800000212B4881608021C160002101614161FE
:101690008161C161FEF7CAFE08B1FEF7A0FD00BF7F
:1016A00023486063446200BF1B482830214908601A
:1016B0001020486000211F4881608021C160002106
:1016C000016141618161C161FEF7B0FE08B1FEF7C1
:1016D00086FD00BF17482063446200BF0022114608
:1016E0002620FFF74FF92620FFF73CF91248006843
:1016F000C06840F0100010490968C8604FF480626B
:101700000949084800F01AF806B010BD0038014039
:101710000010024000080140580002401C1900203F
:10172000601900209C1800209C000020004400400C
:10173000A4190020E8190020DC18002077B581B03A
:101740000446154694F83A00202850D1029800B17A
:1017500015B9012004B070BD00BF94F8380001280D
:1017600001D10220F6E7012084F8380000BF02987A
:10177000A062A5850020E063222084F83A001D487D
:10178000616B88621C48616BC8621C48616B0863AE
:101790000020616B486302AE32682368191D2B4636
:1017A000606BFEF777FE00BF0020009020680068A5
:1017B000009020684068009000BF00BF00BF00207C
:1017C00084F8380000BF2068C06840F48070216849
:1017D000C8602068406940F00100216848612068C5
:1017E000406940F04000216848610020B2E70220D3
:1017F000B0E70000871D0008CD1D0008371D000858
:10180000704770472DE9F84304460D4616461F46BB
:101810004FF0000994F8390020285CD105B116B9C1
:101820000120BDE8F88300BF94F83800012801D1F9
:101830000220F6E7012084F8380000BF0020E063B2
:10184000212084F83900FFF717F88146A684E68442
:101850002BE0E08C401EE084A068B0F5805F16D1DC
:101860004B46002280212046009700F059FC08B129
:101870000320D6E7A846B8F80000C0F308002168A6
:101880004860206908B9AD1C0FE06D1C0DE04B46A7
:10189000002280212046009700F042FC08B103207E
:1018A000BFE715F8010B21684860E08C0028D0D113
:1018B0004B46002240212046009700F031FC08B141
:1018C0000320AEE7202084F8390000BF002084F810
:1018D000380000BFA5E70220A3E70000F7B50446E3
:1018E000154694F8390020283DD1019800B10DB972
:1018F0000120FEBD00BF94F83800012801D102206C
:10190000F7E7012084F8380000BF01982062A58421
:10191000E5840020E063212084F839001348216B1E
:1019200088621348216BC8621248216B086300204B
:10193000216B486301AE23681A1D31682B46206B6A
:10194000FEF7A8FD6FF040002168086000BF00208E
:1019500084F8380000BF2068406940F080002168AA
:1019600048610020C5E70220C3E70000DB1D000836
:10197000111E0008371D00087047704700BFFEE7C2
:1019800008B500BF1648406940F00100144948619D
:101990000846406900F00100009000BF00BF00222F
:1019A00011460E20FEF7EEFF0E20FEF7DBFF0022B1
:1019B00011460F20FEF7E6FF0F20FEF7D3FF0022AF
:1019C00011461020FEF7DEFF1020FEF7CBFF0022AD
:1019D00011461120FEF7D6FF1120FEF7C3FF08BD08
:1019E0000010024008B500BF0648806940F00400BE
:1019F000044988610846806900F00400009000BF37
:101A000000BF08BD0010024000B587B00020039061
:101A100004900590069001900290154815490860C1
:101A200040F21F30486000211248816040F2E731E7
:101A3000C1600021016141618161FFF7A1FB08B133
:101A4000FEF7CDFB4FF48050039003A90948FFF740
:101A5000F0FB08B1FEF7C3FB00200190029001A942
:101A60000448FFF763FB08B1FEF7B9FB07B000BD00
:101A7000002C01401C00002000B587B0002003901E
:101A8000049005900690019002904FF08040144918
:101A9000086040F21F3048600021114881606321D6
:101AA000C160002101618161FFF76AFB08B1FEF7A7
:101AB00096FB4FF48050039003A90948FFF7B9FB48
:101AC00008B1FEF78CFB00200190029001A90448A8
:101AD000FFF72CFB08B1FEF782FB07B000BD00004A
:101AE0005C00002010B50B480B4908604FF4E13052
:101AF0004860002108488160C16001610C2141619A
:101B000000218161C161FFF7BFFC08B1FEF767FBEF
:101B100010BD0000003801409C18002010B50B4893
:101B20000B4908604FF4E1304860002108488160AB
:101B3000C16001610C21416100218161C161FFF738
:101B4000A3FC08B1FEF74BFB10BD000000440040B1
:101B5000DC18002000BFFEE77047704708B5084951
:101B60000968C9084FF47A72B1FBF2F14143009160
:101B700000BF00BF00994A1E00920029F9D108BD9C
:101B800018000020704710B5FEF77CFE10BD00B5B0
:101B90008FB0282105A8FEF7CCFA14216846FEF77D
:101BA000C8FA022005900120099010200A90002018
:101BB0000C9005A8FFF76EF808B1FEF710FB0F2098
:101BC000009000200190029003900490002168464C
:101BD000FEF72AFF08B1FEF702FB0FB000BD0000C0
:101BE0001148006840F001000F490860084640684D
:101BF0000E4908400C494860084600680C490840F6
:101C0000094908600846006820F4802008600846FA
:101C1000406820F4FE0048604FF41F008860C8034D
:101C20000449086070470000001002400000FFF8FF
:101C3000FFFFF6FE08ED00E010B50268184B984271
:101C400008D0B0F1804F05D0164B984202D0164B09
:101C5000984203D122F070024B681A43104B98420D
:101C600008D0B0F1804F05D00E4B984202D00E4BF9
:101C7000984203D122F44072CB681A4322F08003C9
:101C80004C6943EA040202608B68C3620B6883629A
:101C9000034B984201D10B6903630123436110BDDB
:101CA000002C0140000400400008004030B50C4604
:101CB000816821F47F4142EA03252543294381605D
:101CC00030BD0A46816821F0700142F007031943D4
:101CD0008160704730B50B461446026A056A25F0EC
:101CE00001050562816921F0F00141EA041122F049
:101CF0000A021A438161026230BD30B50B461446B8
:101D0000056A25F0100505628169026A21F47041B7
:101D100041EA043122F0A00242EA03128161026228
:101D200030BD70B505466C6A0020E085E084204631
:101D3000FFF703FB70BD70B506460025746A206886
:101D40004069C0F3C01594F83900212805D125B1A8
:101D50000020E084204600F082F820684069C0F34B
:101D6000801594F83A00222805D125B10020E0859D
:101D7000204600F054F8E06B40F01000E06320468D
:101D8000FFF7DBFA70BD70B505466C6A286800681D
:101D900000F02000B0B90020E0852068C06820F481
:101DA00080702168C8602068406920F001002168C7
:101DB00048612068406920F0400021684861202087
:101DC00084F83A002046FFF71BFD70BD70B504464D
:101DD000656A2846FFF715FD70BD70B505466C6A4B
:101DE0002868006800F0200070B90020E0842068B6
:101DF000406920F08000216848612068C06840F098
:101E000040002168C86002E02046FFF7B5FD70BDC4
:101E100070B50446656A2846FFF7AFFD70BD0168DE
:101E2000C96821F490710268D1600168496921F0A4
:101E3000010102685161202180F83A10704710B505
:101E400004462068C06820F040002168C860202057
:101E500084F839002046FFF78FFD002010BD01688F
:101E6000C96821F0C0010268D160202180F83910D2
:101E7000704770B5044694F83A0022284AD1A06809
:101E8000B0F5805F13D1A56A206940B92068406829
:101E9000C0F308002880A06A801CA06219E02068B6
:101EA0004068C0B22880A06A401CA06211E020698E
:101EB00038B920684068C1B2A26A501CA062117093
:101EC00007E02068406800F07F01A26A501CA06211
:101ED0001170E08D401E80B2E085C8B92068C068EE
:101EE00020F020002168C8602068C06820F480705D
:101EF0002168C8602068406920F0010021684861BD
:101F0000202084F83A002046FFF77AFC002070BDBC
:101F10000020FCE70220FAE770B504462168096951
:101F200021F44051E2681143226811612269A168DD
:101F30001143626941EA02052168C96841F20C62F5
:101F4000914329432268D1602168496921F4407195
:101F5000A269114322685161564A2168914254D1C5
:101F6000FEF73EFE00EBC00101EB0011626892003B
:101F7000B1FBF2F100EBC00202EB001263689B00C0
:101F8000B2FBF3F26423B2FBF3F202EBC20303EB06
:101F90000212A1EB8201322202EB01116422B1FB99
:101FA000F2F101F0F00100EBC00202EB00126368F5
:101FB0009B00B2FBF3F26423B2FBF3F201EB0212DB
:101FC00000EBC00101EB001163689B00B1FBF3F172
:101FD00000EBC00303EB00136668B600B3FBF6F337
:101FE0006426B3FBF6F303EBC30606EB0313A1EB86
:101FF0008301322303EB01116423B1FBF3F101F000
:102000000F0111442268916053E0FEF7D9FD00EB07
:10201000C00101EB001162689200B1FBF2F100EB2C
:10202000C00202EB001263689B00B2FBF3F2642370
:10203000B2FBF3F202EBC20303EB0212A1EB82014B
:10204000322202EB01116422B1FBF2F101F0F00146
:1020500000EBC00202EB001263689B00B2FBF3F2DC
:102060006423B2FBF3F201EB021200EBC00101EBBF
:10207000001163689B00B1FBF3F100EBC00303EBBD
:1020800000136668B600B3FBF6F36426B3FBF6F301
:1020900003EBC30606EB0313A1EB8301322303EB2F
:1020A00001116423B1FBF3F101F00F011144226827
:1020B000916070BD00380140014691F83900212837
:1020C0002CD18868B0F5805F0FD10A6A1088C0F300
:1020D00008000B685860086918B9086A801C086213
:1020E00009E0086A401C086205E00B6A581C086297
:1020F00018780B685860C88C401E80B2C88458B9E4
:102100000868C06820F080000B68D8600868C06864
:1021100040F040000B68D860002070470220FCE7C8
:102120002DE9F04104460D4617469846069E21E0EB
:10213000701CF8B12EB1FEF79FFBA0EB0800B04277
:1021400018D92068C06820F4D0702168C860206861
:10215000406920F0010021684861202084F839009E
:1021600084F83A0000BF002084F8380000BF032044
:10217000BDE8F081206800682840A84201D1012014
:1021800000E00020B842D3D00020F1E738B50025A8
:10219000144800680068C0F30015F5B100BF0020C6
:1021A000009010480068006800900E480068406881
:1021B000009000BF00BF0B48006804680948006831
:1021C0004468C4F580600849088001200749087008
:1021D000820207490348FFF7B1FA0248FFF7AEF859
:1021E00038BD00009C1800200000002004000020E2
:1021F0009C10002038B50025164800680068C0F320
:10220000001515B300BF0020009012480068006858
:102210000090104800684068009000BF00BF0D4863
:10222000006804680B4800684468C4F580600A4987
:102230000880012009490870820209490548FFF712
:102240007DFA074907A000F017F80248FFF776F873
:1022500038BD0000DC18002002000020050000202E
:102260009C14002067657420646174613A5B257377
:10227000200D0A0000BFFEE70FB4054B10B503A9FF
:10228000044A029800F033F810BC5DF814FB00001B
:10229000C52300080800002002480068C0F302209F
:1022A000704700000CED00E010B5002804DB0A07C1
:1022B000130E054A135406E00A07140E034A00F0F1
:1022C0000F031B1FD45410BD00E400E018ED00E024
:1022D00002E008C8121F08C1002AFAD170477047EF
:1022E000002001E001C1121F002AFBD170472DE937
:1022F000F84F9946924688460546002706E025286D
:102300000AD051464A4690476D1C7F1C2878002809
:10231000F5D13846BDE8F88F002315F8011F18469F
:102320002E2915D115F8011F04232A290DD06FF08D
:102330002F022978A1F13004092C09D800EB800084
:1023400002EB400008446D1CF3E758F8040B6D1CC9
:102350002A78002ADDD0632A07D0732A0FD01046CE
:1023600051464A4690477F1C2AE018F8042B8DF806
:10237000002000218DF801106E46012103E058F87D
:10238000046B4FF0FF315A074FF0000401D409E00D
:10239000641C84420BDA8C42FADB325D002AF7D1EE
:1023A00005E0641C8C42FCDB305D0028F9D1274439
:1023B00004E016F8010B51464A469047641EF8D2D5
:1023C0006D1CA3E700BF054A126802F04002002A14
:1023D000F9D0C2B2014B1B1D1A6070470038014092
:1023E000FEF75CFAFFF7D3FBFFF7FCFAFFF7C8FA3A
:1023F000FFF70AFBFFF740FBFFF774FBFFF78EFBCD
:102400001B48FEF701FF1B48FEF7FEFE2EE04FF4CF
:102410002F753226002426E004F12F024FF480614C
:102420001548FDF77FFE00200AE0642190FBF1F2E1
:1024300001FB120111B90A210F4A1154411C88B243
:10244000A842F2DB2A460C490C48FFF747FA322033
:10245000FEF76EF84FF47A730A2207490848FFF72F
:10246000D1F9601CC4B20A2CD6DB00BFCFE7000054
:102470001C0000205C0000209C0800209C1800200C
:10248000DC1800200000000000000000010203042E
:10249000060708090000000001020304BC2400082C
:1024A000000000201C000000D0220008D8240008F2
:1024B0001C000020141E0000E022000800000000A4
:1024C00000000000000000000000000010000000FC
:0824D000010000000024F400EB
:04000005080000ED02
:00000001FF
